:020000040800F2
:10000000480700201510000891010008930100081E
:10001000970100089B0100089F01000800000000F4
:10002000000000000000000000000000A301000824
:10003000A501000800000000A7010008A9010008B0
:100040002F1000082F1000082F1000082F10000894
:100050002F1000082F1000082F1000082F10000884
:100060002F1000082F1000082F1000082F10000874
:100070002F1000082F1000082F1000082F10000864
:100080002F1000082F1000082F1000082F10000854
:100090002F1000082F1000082F1000082F10000844
:1000A0002F1000082F1000082F1000082F10000834
:1000B0002F1000082F1000082F1000082F10000824
:1000C0002F1000082F1000082F1000082F10000814
:1000D0002F100008D3080008F10800080F090008D5
:1000E0002F1000082F1000082F10000800F002F851
:1000F00000F03FF80AA090E8000C82448344AAF183
:100100000107DA4501D100F034F8AFF2090EBAE880
:100110000F0013F0010F18BFFB1A43F0010318473B
:10012000C82A0000E82A0000103A24BF78C878C125
:10013000FAD8520724BF30C830C144BF04680C60ED
:10014000704700000023002400250026103A28BF35
:1001500078C1FBD8520728BF30C148BF0B60704739
:10016000642902F05184002070471FB51FBD10B5EF
:1001700010BD02F0FEFC1146FFF7F7FF00F019F981
:1001800002F01CFD03B4FFF7F2FF03BC02F024FDF4
:10019000704700BFFEE700BFFEE700BFFEE700BFFD
:1001A000FEE7704770477047704700000CB50020AD
:1001B000019000906C48006840F480306A49086003
:1001C00000BF6948006800F4003000900198401CAE
:1001D0000190009818B90198B0F5A06FF1D162486C
:1001E000006800F4003010B10120009001E0002010
:1001F00000900098012843D15C48006840F010004E
:100200005A4908600846006820F007000860084660
:10021000006840F002000860534840685249486056
:100220000846406848600846406840F4806048607E
:100230000846406820F47C1048600846406840F456
:10024000E81048600846006840F08070086000BF11
:100250004548006800F000700028F9D04248406826
:1002600020F00300404948600846406840F0020022
:10027000486000BF3C48406800F00C000828F9D1F5
:100280000CBD10B5FFF792FF10BD10B536480068E1
:1002900040F001003449086008464068344908408D
:1002A0003149486008460068324908402E490860D4
:1002B0000846006820F4802008600846406820F462
:1002C000FE0048604FF41F008860FFF7DAFF4FF030
:1002D00000602949086010BD10B5002100200022EF
:1002E000214B5B6803F00C0121B1042906D00829D9
:1002F00028D107E0214B224C236027E01F4B204CE4
:10030000236023E0184B5B6803F47010164B5B68A6
:1003100003F48032022303EB904022B9194B43438C
:10032000174C23600DE0104B5B6803F4003323B1DE
:10033000144B4343124C236003E0104B4343104CD7
:10034000236003E00D4B0E4C236000BF00BF064B43
:100350005B68C3F303130C4CE15C094B1B68CB4097
:10036000074C236010BD0000001002400020024036
:100370000000FFF8FFFFF6FE08ED00E000127A0033
:100380000000002000093D000400002008B5012104
:10039000102002F089F810208DF803004002ADF81B
:1003A000000003208DF802006946204800F0B2FEEC
:1003B00008BDFFF7EBFF00F04BFB4FF4E1320021EB
:1003C0001B4800F04BF930E000F072FB1948C3788D
:1003D000827819A11B4802F0CFFA1A49144800F09C
:1003E00055FA40F6C41000F02AFB12484378027810
:1003F00015A1184802F0C0FA16490D4800F046FA57
:1004000040F6C41000F01BFB4FF40051074800F009
:1004100030FF4FF4FA7000F012FB4FF40051034824
:1004200000F025FF642000F00AFBCDE7001001403A
:10043000003801401600002074656D25642C256489
:10044000000000005C00002068756D25642C2564A8
:10045000000000007000002013B5044600BF80219A
:10046000204602F02FFA0028F9D09DF80400A08061
:100470001CBD70B504460D46E1B2F948FFF7ECFF2C
:10048000204670BD0146F64A914200D10020F54A4F
:10049000914200D10120F44A914200D102207047DC
:1004A00010B504460121880402F00BF8042C1AD17F
:1004B0000121082001F0F8FF0121880401F0F4FF78
:1004C0002002EA4908801820C87003208870E84894
:1004D00000F020FE6002E54908800420C870E4486E
:1004E00000F018FE3CE0052C1CD10121102001F089
:1004F000DBFF0121880401F0D7FF4FF48060DB4966
:1005000008801820C87003208870DA4800F002FEC6
:100510004FF40060D54908800420C870D54800F029
:10052000F9FD1DE0062C1BD10121202001F0BCFFAC
:100530000121880401F0B8FF4FF48070CB49088096
:100540001820C87003208870CB4800F0E3FD4FF4FA
:100550000070C64908800420C870C74800F0DAFD62
:1005600010BD10B504460121480401F0AAFF022C79
:100570001AD10121042001F097FF0121480401F064
:10058000A0FF0420B94908801820C8700320887093
:10059000BA4800F0BFFD0820B44908800420C870A4
:1005A000B64800F0B7FD1BE0032C19D10121202033
:1005B00001F07AFF0121480401F083FF2020AB49BC
:1005C00008801820C87003208870AB4800F0A2FD96
:1005D0004020A64908800420C870A74800F09AFD72
:1005E00010BD10B50446E4B90121052001F05CFFFF
:1005F0000121880301F058FF4FF400709B490880E7
:100600001820C870032088709C4800F083FD4FF4C8
:100610008060964908800420C870984800F07AFDF0
:100620001BE0012C19D10121082001F03DFF01211F
:10063000880301F039FF40208C4908801820C870D9
:10064000032088708A4800F065FD80208749088073
:100650000420C870864800F05DFD10BD70B586B0FE
:1006600004460D46164602967D48844212D128461D
:10067000FFF7B7FF25208DF804000020ADF8140027
:100680000C20ADF812000020ADF81000ADF80E00FF
:10069000ADF80C007348844212D12846FFF761FF81
:1006A00026208DF804000020ADF814000C20ADF8D1
:1006B00012000020ADF81000ADF80E00ADF80C00EF
:1006C0006948844212D12846FFF7EAFE27208DF8B8
:1006D00004000020ADF814000C20ADF8120000203A
:1006E000ADF81000ADF80E00ADF80C00002120466A
:1006F00002F00DF8204601F03BFF02A9204601F070
:100700007AFF0121204602F002F8012240F2255131
:10071000204602F008F801208DF8070000208DF82F
:1007200005002046FFF7AEFE8DF8060001A800F098
:100730000EF906B070BD0146494A914200D15048B9
:10074000484A914200D14F48474A914200D14E4811
:10075000704730B5044600252046FFF7ECFF0346FE
:10076000D88800280EDD58899988884201D1002058
:1007700058815989186845565889401C5881D8882D
:10078000401ED880E8B230BD10B504462046FFF7C1
:10079000D2FF0346D8889988884201D1012010BD34
:1007A0000020FCE773B506463046FFF7C4FF03465A
:1007B000DD885C890FE09888A04200D10024186889
:1007C00000579DF80410884201D101207CBD601CB7
:1007D00084B2681E85B2002DEDDC0020F6E710B56E
:1007E00003461846FFF7A7FF0446E08808B9012032
:1007F00010BD0020FCE7F0B507460D461646002464
:100800003846FFF7ECFF40B90A213846FFF7CAFF28
:1008100028B93846FFF7B8FF08B90020F0BD0BE053
:100820003846FFF796FF2855285D0A2802D1601C3C
:1008300084B204E0601C84B2701EA042F0DC00BFF1
:10084000002028552046E9E710B504462046FFF76A
:1008500072FF03460020D8801881588110BD000027
:10086000003801400044004000480040440000209F
:10087000000C01400010014000140140000801403C
:10088000200000202C0000203800002070B5054614
:100890000C4604E014F8011B2846FFF7DDFD207824
:1008A0000028F7D170BD10B5C28883889A420FDA4C
:1008B000028983889A4201D1002202814AB20489C6
:1008C00003681A550289521C0281C288521CC280D8
:1008D00010BD10B540F22551144802F009F830B1AE
:1008E0001248001D0088C1B21148FFF7DCFF10BD9F
:1008F00010B540F225510F4801F0FAFF30B10D4814
:10090000001D0088C1B20C48FFF7CDFF10BD10B527
:1009100040F22551094801F0EBFF30B10748001DB6
:100920000088C1B20648FFF7BEFF10BD0038014085
:1009300020000020004400402C000020004800401F
:100940003800002031490143314A1160704770B5C9
:10095000002100230F22C47804B32D4C246804F432
:10096000E064C4F5E064210AC1F10403CA4044789C
:1009700004FA03F18478144021430901254C0678D8
:10098000A155047804F01F050124AC4005786D11D1
:10099000AD0005F1E025C5F8004109E0047804F058
:1009A0001F050124AC401C4D0678761145F8264001
:1009B00070BD1A4A0A400243154B1B1F1A6070474C
:1009C00039B1134A121D12680243114B1B1D1A60E4
:1009D00006E00F4A121D126882430D4B1B1D1A6060
:1009E0007047042808D14FF0E021096941F0040163
:1009F0004FF0E022116107E04FF0E021096921F09A
:100A000004014FF0E0221161704700000000FA0578
:100A10000CED00E000E400E080E100E080FFFF1F5B
:100A200010B500214FF0804001F086FB00BF4FF071
:100A3000804001F0A4FBB0F57A7FF8DB10BD10B563
:100A4000044602E0FFF7ECFF641E002CFAD110BD53
:100A50001FB50121082001F027FD0121084601F002
:100A600030FD14208DF80F004FF48050ADF80C00CD
:100A700003208DF80E0003A9F84800F04BFB4FF45B
:100A80008051F64800F0F3FB0020ADF802004FF66D
:100A9000FF70ADF804004720ADF8000069464FF044
:100AA000804000F059FD0121880701F0B1F81FBD19
:100AB00010B54FF48051E94800F0DBFB1420FFF73C
:100AC000BEFF4FF48051E54800F0D1FB00214FF00C
:100AD000804001F031FB06E04FF48051DF4800F028
:100AE000ACFB00B105E04FF0804001F048FB0A2864
:100AF000F2DB00BF4FF0804001F041FBD849088095
:100B0000084600880A2801DB00BFFEE700214FF0FD
:100B1000804001F011FB06E04FF48051CF4800F017
:100B20008CFB00B905E04FF0804001F028FB2D2838
:100B3000F2DB00BF4FF0804001F021FBC849088084
:100B4000084600882D2803DA08460088052801DCBD
:100B500000BFFEE700214FF0804001F0EDFA06E013
:100B60004FF48051BD4800F068FB00B105E04FF044
:100B7000804001F004FB5A28F2DB00BF4FF08040B8
:100B800001F0FDFAB6490880084600885A2803DAC1
:100B900008460088462801DC00BFFEE700214FF030
:100BA000804001F0C9FA06E04FF48051AB4800F0F4
:100BB00044FB00B905E04FF0804001F0E0FA5F2807
:100BC000F2DB00BF4FF0804001F0D9FAA449088061
:100BD000084600885F2803DA084600884B2801DCB5
:100BE00000BFFEE700245FE000214FF0804001F0ED
:100BF000A3FA06E04FF48051984800F01EFB00B1C4
:100C000005E04FF0804001F0BAFA4128F2DB00BF66
:100C10004FF0804001F0B3FA9149088008460088FF
:100C2000412803DA084600882D2801DC00BFFEE7D2
:100C300000214FF0804001F07FFA06E04FF4805130
:100C4000864800F0FAFA00B905E04FF0804001F064
:100C500096FA5028F2DB00BF4FF0804001F08FFA87
:100C60007F49088008460088502803DA0846008833
:100C70000A2801DC00BFFEE77A4800784006000E33
:100C800078490870764800882D2805DD08460078E8
:100C900040F00100087005E07248007820F0010083
:100CA00070490870601CC4B2082C9DDB00245FE012
:100CB00000214FF0804001F03FFA06E04FF48051F0
:100CC000664800F0BAFA00B105E04FF0804001F04C
:100CD00056FA4128F2DB00BF4FF0804001F04FFA96
:100CE0005F49088008460088412803DA08460088E2
:100CF0002D2801DC00BFFEE700214FF0804001F00D
:100D00001BFA06E04FF48051544800F096FA00B9FF
:100D100005E04FF0804001F032FA5028F2DB00BFCE
:100D20004FF0804001F02BFA4D49088008460088BA
:100D3000502803DA084600880A2801DC00BFFEE7D5
:100D4000484840784006000E4649487044480088AC
:100D50002D2805DD0846407840F00100487005E088
:100D60004048407820F001003E494870601CC4B201
:100D7000082C9DDB00245FE000214FF0804001F053
:100D8000DBF906E04FF48051344800F056FA00B128
:100D900005E04FF0804001F0F2F94128F2DB00BF9E
:100DA0004FF0804001F0EBF92D490880084600889B
:100DB000412803DA084600882D2801DC00BFFEE741
:100DC00000214FF0804001F0B7F906E04FF4805168
:100DD000224800F032FA00B905E04FF0804001F0FF
:100DE000CEF95028F2DB00BF4FF0804001F0C7F988
:100DF0001B49088008460088502803DA0846008806
:100E00000A2801DC00BFFEE7164880784006000E85
:100E100014498870124800882D2805DD084680781E
:100E200040F00100887005E00E48807820F0010055
:100E30000C498870601CC4B2082C9DDB002466E05D
:100E400000214FF0804001F077F90DE04FF4805120
:100E5000024800F0F2F938B10CE00000000C01404B
:100E600014000020160000204FF0804001F087F9A8
:100E70004128EBDB00BF4FF0804001F080F9614971
:100E8000088008460088412803DA084600882D2893
:100E900001DC00BFFEE700214FF0804001F04CF97B
:100EA00006E04FF48051584800F0C7F900B905E05A
:100EB0004FF0804001F063F95028F2DB00BF4FF0A3
:100EC000804001F05CF94F490880084600885028AE
:100ED00003DA084600880A2801DC00BFFEE74B4819
:100EE000C0784006000E4949C870464800882D2841
:100EF00005DD0846C07840F00100C87005E04348B1
:100F0000C07820F001004149C870601CC4B2082CB0
:100F100096DB00245FE000214FF0804001F00CF9E7
:100F200006E04FF48051384800F087F900B105E041
:100F30004FF0804001F023F94128F2DB00BF4FF071
:100F4000804001F01CF92F4908800846008841289C
:100F500003DA084600882D2801DC00BFFEE70021E7
:100F60004FF0804001F0E8F806E04FF48051264849
:100F700000F063F900B905E04FF0804001F0FFF8A0
:100F80005028F2DB00BF4FF0804001F0F8F81D4917
:100F9000088008460088502803DA084600880A2896
:100FA00001DC00BFFEE7194800794006000E174932
:100FB0000871144800882D2805DD0846007940F0A6
:100FC0000100087105E01148007920F001000F4987
:100FD0000871601CC4B2082C9DDB0C4800780B49DA
:100FE000497808440949897808440849C978084477
:100FF00007490870054800790978884201D000BF88
:10100000FEE710BD14000020000C01401600002077
:101010001B0000200948804709480047FEE7FEE71B
:10102000FEE7FEE7FEE7FEE7FEE7FEE7FEE7FEE798
:1010300004480549054A064B704700008B0200082A
:10104000ED00000848010020480700204803002068
:101050004803002010B50446CC48844208D1012141
:10106000042001F03BFA0021042001F037FA46E0A9
:10107000C748844208D10121082001F02FFA00213D
:10108000082001F02BFA3AE0C248844208D101213D
:10109000102001F023FA0021102001F01FFA2EE0A9
:1010A000BD48844208D10121202001F017FA002117
:1010B000202001F013FA22E0B848844208D101212F
:1010C000402001F00BFA0021402001F007FA16E061
:1010D000B348844208D10121802001F0FFF90021AA
:1010E000802001F0FBF90AE0AE48844207D10121DB
:1010F000801501F0F3F90021A01501F0EFF910BD02
:1011000010B50121084601F0E9F90021012001F0A4
:10111000E5F910BD2DE9F04102460025002600202A
:1011200000230024002791F803C00CF00F0591F86C
:1011300003C00CF0100CBCF1000F03D091F802C0FA
:101140004CEA050591F800C0BCF1000F31D01468DD
:1011500000202BE04FF0010C0CFA00F3B1F800C0B6
:101160000CEA03069E4220D183004FF00F0C0CFACC
:1011700003F7BC4305FA03FC4CEA040491F803C0EE
:10118000BCF1280F06D14FF0010C0CFA00FCC2F89C
:1011900014C00AE091F803C0BCF1480F05D14FF02C
:1011A000010C0CFA00FCC2F810C0401C0828D1D376
:1011B0001460B1F800C0BCF1FF0F34DD54680020AA
:1011C0002EE000F1080C4FF0010808FA0CF3B1F81A
:1011D00000C00CEA03069E4221D183004FF00F0CA1
:1011E0000CFA03F7BC4305FA03FC4CEA040491F83B
:1011F00003C0BCF1280F05D100F1080C08FA0CF867
:10120000C2F8148091F803C0BCF1480F07D100F177
:10121000080C4FF0010808FA0CF8C2F81080401CC6
:101220000828CED35460BDE8F0814FF6FF710180ED
:10123000022181700421C17070470246002093682A
:101240000B400BB1012000E0002070470146886888
:1012500080B2704702460020D3680B400BB10120DA
:1012600000E0002070470146C86880B27047016105
:101270007047416170470AB1016100E04161704708
:10128000C16070474FF480320A438261816182619C
:1012900082698269704702460020434B18684FF606
:1012A0008073184040EA021008433F4B18607047B3
:1012B0003E49C8617047F0B50A460023002400216A
:1012C000002500F00046B6F1004F02D1364EF1691C
:1012D00001E0354E7168C0F3034583B200F4401657
:1012E000B6F5401F08D121F070612F4E766826F0C8
:1012F00070662D4F7E6012E000F48016B6F5801FF8
:1013000006D1032606FA05F4A14341F0706106E018
:10131000460D360103FA06F6B14341F0706122B181
:10132000460D360103FA06F6314300F00046B6F1E9
:10133000004F02D11C4EF16101E01B4E7160F0BD07
:1013400030B500228B071C0F0F2303FA04F2164B53
:1013500008338C1053F824309343134C08348D1009
:1013600044F8253023468C1053F824308C07240F82
:1013700000FA04F423430C4C08348D1044F8253053
:1013800030BD0A49DC3108607047000000080140A8
:10139000000C014000100140001401400018014001
:1013A000001C0140002001400000014000002042DC
:1013B00010B50446FE48844208D10121C01401F052
:1013C0008DF80021E01401F089F8C4E0B4F1804FF9
:1013D00008D10121084601F08EF80021012001F01A
:1013E0008AF8B8E0F348844208D10121022001F0D4
:1013F00082F80021022001F07EF8ACE0EE48844241
:1014000008D10121042001F076F80021042001F028
:1014100072F8A0E0E948844208D10121082001F0D7
:101420006AF80021082001F066F894E0E44884425C
:1014300008D10121102001F05EF80021102001F0F8
:101440005AF888E0DF48844208D10121202001F0C9
:1014500052F80021202001F04EF87CE0DA48844266
:1014600008D10121401401F039F80021601401F085
:1014700035F870E0D548844209D10121C80401F053
:101480002DF800214FF4002001F028F863E0D04847
:10149000844209D10121080501F020F800214FF410
:1014A000801001F01BF856E0CA48844209D101219E
:1014B000480501F013F800214FF4001001F00EF878
:1014C00049E0C548844208D10121402001F013F8C9
:1014D0000021402001F00FF83DE0C048844208D1CF
:1014E0000121802001F007F80021802001F003F89D
:1014F00031E0BB48844208D10121801500F0FBFF98
:101500000021A01500F0F7FF25E0B648844209D17C
:101510000121080400F0E2FF00214FF4803000F0C8
:10152000DDFF18E0B048844209D10121480400F0F1
:10153000D5FF00214FF4003000F0D0FF0BE0AB48A6
:10154000844208D10121880400F0C8FF00214FF433
:10155000802000F0C3FF10BD00220288944B984207
:101560000ED0994B98420BD0B0F1804F08D0914BE0
:10157000984205D0904B984202D0904B984204D1AB
:101580004FF68F731A404B881A438D4B984207D001
:101590008C4B984204D04FF6FF431A40CB881A4335
:1015A00002808B8883850B880385814B98420BD002
:1015B000854B984208D08B4B984205D08A4B984275
:1015C00002D08A4B984201D10B7A03860123838291
:1015D000704770B5002400220023058C4FF6FE767C
:1015E00035400584028C8388048B4FF68F752C4020
:1015F000B51E2C400D882C43751E2A400D892A43A8
:101600004D882A436A4DA8420BD06F4DA84208D09E
:10161000744DA84205D0744DA84202D0734DA84223
:1016200013D14FF6F7752A404D892A434FF6FB75C3
:101630002A408D882A434FF6FF652B404FF6FF5511
:101640002B408D892B43CD892B4383800483CD8808
:101650008586028470BD70B5002400220023058CAD
:101660004FF6EF7635400584028C8388048B48F66C
:10167000FF752C404FF6FF452C400D884FF6FF7646
:1016800006EA05252C434FF6DF752A400D8906EA48
:1016900005152A434D8806EA05152A43444DA842FC
:1016A00002D0494DA8421DD14FF67F752A404D8981
:1016B0004FF6FF7606EA05152A434FF6BF752A4016
:1016C0008D8806EA05152A434FF6FF352B404FF269
:1016D000FF752B408D8906EA85052B43CD8906EAE7
:1016E00085052B4383800483CD880587028470BDE4
:1016F00070B5002400220023058C4FF6FF663540AC
:101700000584028C8388848B4FF68F752C404FF6AE
:10171000FC752C400D882C434FF6FF552A400D894F
:101720004FF6FF7606EA05252A434D8806EA052589
:101730002A431F4DA84202D0234DA8421DD14FF28B
:10174000FF752A404D894FF6FF7606EA05252A43A4
:101750004FF6FF352A408D8806EA05252A434EF6C6
:10176000FF752B404DF6FF752B408D8906EA051558
:101770002B43CD8906EA05152B4383808483CD88CE
:101780008587028470BD70B5002200230024058C7B
:101790004EF6FF7635400584038C8488828B48F6AC
:1017A000FF752A404FF6FF452A400D8820E00000D3
:1017B000002C01400004004000080040000C0040E4
:1017C000001000400014004000340140004C014073
:1017D000005001400054014000180040001C00402F
:1017E000002000400040014000440140004801400A
:1017F0004FF6FF7606EA05252A434DF6FF752B4086
:101800000D8906EA05352B434D8806EA05352B433D
:10181000FA4DA84202D0FA4DA84208D14BF6FF7506
:101820002C408D894FF6FF7606EA85152C4384807F
:101830008283CD88A0F84050038470BD828B4FF224
:10184000FF331A408283828B4FF6FF7303EA012332
:101850001A4382837047F0B50C46154600220021DA
:101860000026078C4EF6FF7C07EA0C070784828B64
:10187000018C4FF6FF7707EA043640F6FF473A40FF
:101880004FF6FF7707EA05273A434FF6FF7707EA57
:1018900003373A43D94FB8420ED0D94FB8420BD094
:1018A000B0F1804F08D0D74FB84205D0D64FB842DC
:1018B00002D0D64FB84206D14DF6FF77394046F4F4
:1018C0008057394305E047F6FF57394044F48057C5
:1018D000394382830184F0BD828B4FF6F3731A4043
:1018E0008283828B0A4382837047F0B50C4615468B
:1018F000002200210026078C4FF6FF6C07EA0C0738
:101900000784828B018C4FF6FF7707EA04264FF697
:101910000C773A404FF6FF7707EA03172F433A4315
:10192000B64FB8420ED0B64FB8420BD0B0F1804F90
:1019300008D0B44FB84205D0B34FB84202D0B34F2D
:10194000B84206D14FF6FF57394046F48077394305
:1019500005E04FF2FF57394044F4807739438283E2
:101960000184F0BD028B4FF2FF331A400283028BD9
:101970004FF6FF7303EA01231A4302837047F0B561
:101980000C461546002200210026078C4FF6EF7CFE
:1019900007EA0C070784028B018C4FF6FF7707EAF2
:1019A000041640F6FF473A404FF6FF7707EA033741
:1019B0003A434FF6FF7707EA05273A438F4FB8427D
:1019C0000ED08F4FB8420BD0B0F1804F08D08D4F62
:1019D000B84205D08C4FB84202D08C4FB84206D1E5
:1019E0004FF6DF77394046F01007394305E04FF6F0
:1019F0005F77394044F01007394302830184F0BD1A
:101A0000028B4FF6F3731A400283028B0A43028360
:101A10007047F0B50C46154600220021068C4FF6A3
:101A2000FE773E400684028B018C4FF60C763240E6
:101A30007E1C06EA03162E433243704EB0420ED08F
:101A40006F4EB0420BD0B0F1804F08D06D4EB04217
:101A500005D06D4EB04202D06C4EB04206D14FF66A
:101A6000FD76314044F00106314305E04FF6F5764E
:101A7000314044F00106314302830184F0BD70B56A
:101A800005460C465D4885420ED05D4885420BD028
:101A9000B5F1804F08D05B48854205D05A48854251
:101AA00002D05A48854200D100E000BF208850B9DA
:101AB0002389A28861882846FFF7ABFFE188284682
:101AC000FFF79EFF25E0208804280AD12389A288F9
:101AD00061882846FFF753FFE1882846FFF742FF59
:101AE00017E0208808280AD12389A288618828461F
:101AF000FFF7FBFEE1882846FFF7EEFE09E02389A9
:101B0000A28861882846FFF7A6FEE1882846FFF7ED
:101B100095FE70BD2DE9F04105460C4600260127D3
:101B2000608808B9022600E00026A088012801D1BB
:101B3000022700E001272088A0B92389A2886188B4
:101B40002846FFF766FFE1882846FFF759FF2389FB
:101B50003A4631462846FFF712FFE1882846FFF74C
:101B600001FF13E02389A28861882846FFF707FF59
:101B7000E1882846FFF7F6FE23893A463146284693
:101B8000FFF747FFE1882846FFF73AFFBDE8F081FD
:101B90000A884B881A438B881A43CB881A430B89CF
:101BA0001A434B891A438B891A43A0F84420704783
:101BB0004FF6FF71818000210180C1804180017258
:101BC00070470021018041808180C1800181418175
:101BD0008181C18170470021018041800121818084
:101BE0000021C180018170470021018041808180F6
:101BF000C18001814181818170470000002C01403A
:101C0000003401400004004000080040000C004087
:101C100021B1028842F00102028004E002884FF6FE
:101C2000FE731A400280704731B1B0F8442042F48C
:101C30000042A0F8442005E0B0F84420C2F30E02B0
:101C4000A0F8442070471AB183890B43838102E0D6
:101C500083898B43838170478182704741EA020305
:101C6000A0F8483070471AB183890B43838102E0A2
:101C700083898B438381704701894FF6F872114045
:101C8000018170470A46002101894FF68F73194080
:101C900011430181704730B504460D462946204660
:101CA000FFF7F0FF208940F00700208130BD2DE9CB
:101CB000F04104460D4616461F46602D06D13B46B0
:101CC000012231462046FFF75AFE05E03B4601223D
:101CD00031462046FFF79DFE29462046FFF7D2FFFA
:101CE000208940F007002081BDE8F08130B50C4626
:101CF00000210189C9B24FF6FF7505EA0325154396
:101D000025432943018130BD2DE9F04105460E46AA
:101D100017469846002443463A4631462846FFF780
:101D2000E5FF2C894FF6F870044044F007044FF6A5
:101D30008F70044044F070042C81BDE8F081F0B550
:101D400004460D4616461F463B4632462946204667
:101D5000FFF7CCFF208940F480402081F0BD018551
:101D6000828270470A46002101884FF68F7319401E
:101D7000114301807047F0B50C4615461E46002100
:101D8000002200230189028B038C4FF6F87739403B
:101D900021434FF6FC473A4040F201173A434FF6D1
:101DA000DD773B404FF6FF7707EA06172F433B43AB
:101DB000018102830384F0BD0A460021018B4FF6A6
:101DC0008F7319401143018370470A460021018B2C
:101DD00048F6FF7319404FF6FF7303EA02231943D5
:101DE000018370470A460021818B4FF68F7319409B
:101DF0001143818370470A460021818B48F6FF73A7
:101E000019404FF6FF7303EA022319438183704799
:101E100021B1028842F08002028004E002884FF67D
:101E20007F731A400280704721B1828842F0040219
:101E3000828004E082884FF6FB731A4082807047EC
:101E400021B1828842F00802828004E082884FF645
:101E5000F7731A408280704721B1828842F00102F4
:101E6000828004E082884FF6FE731A4082807047B9
:101E70000A460021018B4FF6F77319401143018385
:101E800070470A460021018B4FF2FF7319404FF64D
:101E9000FF7303EA02231943018370470A460021B6
:101EA000818B4FF6F77319401143818370470A46BF
:101EB0000021818B4FF2FF7319404FF6FF7303EA45
:101EC00002231943818370470A460021018B4FF694
:101ED000FB7319401143018370470A460021018BAF
:101EE0004FF6FF3319404FF6FF7303EA02231943FD
:101EF000018370470A460021818B4FF6FB7319401E
:101F00001143818370470A460021818B4FF6FF33CE
:101F100019404FF6FF7303EA022319438183704788
:101F20000A460021018B4FF67F731940114301834C
:101F300070470A460021018BC1F30E014FF6FF7373
:101F400003EA02231943018370470A460021818B6B
:101F50004FF67F7319401143818370470A46002171
:101F6000818BC1F30E014FF6FF7303EA022319437D
:101F7000818370470A460021018C4FF6FD7319409A
:101F80001143018470470A460021018C4FF6F77314
:101F900019401143018470470A460021018C4FF615
:101FA000DF7319404FF6FF7303EA021319430184EC
:101FB00070470A460021018C4FF67F7319404FF697
:101FC000FF7303EA02131943018470470A46002194
:101FD000018C4FF6FF5319404FF6FF7303EA0223BB
:101FE0001943018470470A460021018C4FF2FF73A8
:101FF00019404FF6FF7303EA022319430184704727
:102000000A460021018C4DF6FF7319404FF6FF730D
:1020100003EA023319430184704730B500230124D9
:102020008C40A3B2048C9C430484048C02FA01F516
:10203000ADB22C43048430BD30B5002304248C4061
:10204000A3B2048C9C430484048C02FA01F5ADB263
:102050002C43048430BD70B503460020002418468C
:10206000183001258D40ACB21D8CA5431D8409B1EB
:10207000082909D100EB6100056825F070050560AD
:102080000568154305600EE00D1FC5F34E05284495
:10209000056825F4E045056005684FF6FF7606EA19
:1020A00002263543056070BD21B1028842F002026C
:1020B000028004E002884FF6FD731A4002807047E8
:1020C00021B1028842F00402028004E002884FF647
:1020D000FB731A400280704721B1828842F080026F
:1020E000828004E082884FF67F731A4082807047B6
:1020F00002884FF6F7731A40028002880A43028072
:10210000704782884FF68F731A40828082880A4314
:102110008280704702894FF6F8731A400281028963
:102120000A430281704702894FF67F731A40028189
:1021300002890A4302817047818470478185704714
:10214000818670470187704781877047A0F84010EB
:10215000704702884FF6FF431A40028002880A4304
:10216000028070470146888E70470146088F70478D
:102170000146888F70470146B1F84000704701461C
:10218000888C70470146088D704702460020138AEC
:102190000B400BB1012000E000207047CA430282CF
:1021A000704730B50246002000230024158A05EA56
:1021B0000103958905EA010413B10CB1012000E087
:1021C000002030BDCA43028270470000DF4800682B
:1021D00040F00100DD49086008464068DC490840DD
:1021E000DA49486008460068DA490840D74908607B
:1021F0000846006820F4802008600846406820F403
:10220000FE0048604FF41F0088607047CF4909689E
:1022100021F48031CD4A11601146096821F48021F2
:102220001160B0F5803F03D0B0F5802F0ED106E0ED
:10223000C649096841F48031C44A116007E0C349C6
:10224000096841F4A021C14A116000E000BF00BF4D
:10225000704710B501460022002300204A11012AD0
:1022600002D1BA4C236806E0022A02D1B74C236A95
:1022700001E0B64C636A01F01F02012494401C4047
:102280000CB1012000E0002010BD38B50020009006
:102290000024002500BF3120FFF7DBFF0546009832
:1022A000401C00900098B0F5A06F01D0002DF2D036
:1022B0003120FFF7CEFF08B1012400E000242046C2
:1022C00038BD01460020A14A106820F0F80040EA1D
:1022D000C10010607047A0490860704702460020A6
:1022E0009A4B586820F47C1042EA01031843974B3C
:1022F0005860704798490866704701460020934A25
:10230000506820F003000843506070478F484068D1
:1023100000F00C007047014600208C4A506820F005
:10232000F00008435060704701460020874A50681B
:1023300020F4E06008435060704701460020834A63
:10234000506820F4605040EAC1005060704729B1E5
:102350007E4A527A02437D4B5A7204E07B4A527A9B
:1023600082437A4B5A7270477B49D8310860704774
:1023700001460020754A506820F4404008435060F0
:1023800070470021714A20321170704A82F8201083
:10239000012802D004280AD104E001216B4A20322E
:1023A000117005E00521694A2032117000E000BF7C
:1023B00000BF70476949086070476449096A014372
:1023C000624A11627047654944390860704730B508
:1023D00000210022002400235C4D6D6805F00C01F3
:1023E00021B1042905D0082923D105E05C4D056001
:1023F00022E05B4D05601FE0544D6D6805F47012DE
:10240000524D6D6805F48034022505EB92421CB9EB
:10241000544D554305600BE04C4D6D6805F4003597
:102420001DB1504D5543056002E04D4D55430560CB
:1024300002E04B4D056000BF00BF444D6D6805F0E4
:10244000F0010909484D6B5C0568DD4045603F4D72
:102450006D6805F4E061090A434D6B5C4568DD4039
:1024600085603A4D6D6805F46051C90A3E4D6B5C5C
:102470004568DD40C560354D6D6805F44041890B08
:102480003A4D6B5CC568B5FBF3F5056130BD29B10C
:102490002E4A526902432D4B5A6104E02B4A52697D
:1024A00082432A4B5A61704729B1284A92690243F4
:1024B000264B9A6104E0254A92698243234B9A6134
:1024C000704729B1214AD2690243204BDA6104E006
:1024D0001E4AD26982431D4BDA61704729B11B4AFB
:1024E000D2680243194BDA6004E0184AD26882438A
:1024F000164BDA60704729B1144A12690243134B34
:102500001A6104E0114A12698243104B1A61704744
:1025100012494039086070470F49C86470470B4939
:10252000C87170470948406A40F0807007494862A6
:10253000704701460020054A92680A400AB101200E
:1025400000E0002070470149887270470010024087
:102550000000FFF8FFFFF6FE000042428004424206
:1025600000127A0000093D004800002058000020B9
:1025700010B50446FB48844209D101218803FFF7C6
:10258000ADFF00214FF48040FFF7A8FF32E0F6488E
:10259000844209D101214804FFF7ADFF00214FF427
:1025A0000030FFF7A8FF25E0F048844209D101215F
:1025B0008804FFF7A0FF00214FF48020FFF79BFF66
:1025C00018E0EB48844209D10121C804FFF793FFCA
:1025D00000214FF40020FFF78EFF0BE0E548844216
:1025E00008D101210805FFF786FF00214FF4801074
:1025F000FFF781FF10BD2DE9F04786B005460E4676
:102600000024A24600BFA1460027B08900B100BF48
:102610002F462C8A4CF6FF700440F08804432C822D
:10262000AC894EF6F3100440B088318908437189B3
:1026300008430443AC81AC8A4FF6FF400440B089A4
:102640000443AC8201A8FFF7C2FEC648874202D10C
:10265000DDF810A001E0DDF80CA0A88900F400402E
:1026600040B10AEBCA0000EB0A1031684900B0FB28
:10267000F1F807E00AEBCA0000EB0A1031688900A4
:10268000B0FBF1F86420B8FBF0F0040120096421EC
:1026900001FB1089A88900F4004040B1322000EB12
:1026A000C900B0FBF1F000F00700044308E032205D
:1026B00000EB09106421B0FBF1F000F00F000443BF
:1026C0002C8106B0BDE8F0874FF41651016000215F
:1026D0008180C18001810C2141810021818170476D
:1026E00010B502460020108A4FF2FF0318400B88F5
:1026F0004C8823438C882343CC882343184310827F
:1027000010BD0021018041808180C180704721B1CE
:10271000828942F40052828104E082894DF6FF737F
:102720001A4082817047F0B5034600240026002538
:10273000002040F66A17B94200D100BF1846C1F325
:10274000421401F01F06012707FA06F5012C01D1FA
:102750000C3004E0022C01D1103000E014301AB12A
:1027600007682F43076002E00768AF430760F0BDCA
:102770001AB1838A0B43838202E0838A8B4383826C
:102780007047028A4FF6F0731A400282028A0A43A7
:102790000282704782894FF2FF731A4082818289D8
:1027A0000A438281704721B1828942F0020282810C
:1027B00004E082894FF6FD731A4082817047028AD5
:1027C0004FF6DF731A400282028A0A430282704780
:1027D00021B1028A42F48042028204E0028A4BF66E
:1027E000FF731A4002827047C1F30802828070476B
:1027F00001468888C0F308007047818941F00101D3
:1028000081817047028BD2B20283028B42EA01229D
:1028100002837047028B02F47F420283028B0A43D9
:102820000283704721B1828A42F02002828204E052
:10283000828A4FF6DF731A408282704721B1828A02
:1028400042F01002828204E0828A4FF6EF731A404F
:102850008282704721B1828A42F00802828204E0BB
:10286000828A4FF6F7731A408282704721B18289BB
:1028700042F40042828103E08289C2F30E02828127
:10288000704721B1828A42F40062828204E0828A27
:102890004FF2FF731A4082827047828A4FF6FB73B1
:1028A0001A408282828A0A438282704721B1828AD8
:1028B00042F00202828204E0828A4FF6FD731A40DF
:1028C0008282704702460020B1F5007F00D100BF30
:1028D00013880B400BB1012000E00020704701F489
:1028E0000072B2F5007F00D100BFCA43028070477A
:1028F00070B50246002400230025002040F66A1629
:10290000B14200D100BFC1F3421501F01F030126FF
:1029100006FA03F3012D02D19689334006E0022D19
:1029200002D1168A334001E0968A33400C12012608
:1029300006FA04F41688344013B10CB1012000E00B
:10294000002070BD10B50022002340F66A14A14299
:1029500000D100BF0A1201249440A3B2DC430480DA
:1029600010BD000000380140004400400048004015
:10297000004C0040005000400FB41CB5074B06AAA5
:102980007B4469460090059800F0DBF8002069461A
:1029900000F0EAF81CBC5DF814FB0000E501000043
:1029A0002DE9F0410E460446002020622046E168F1
:1029B000884730B3252805D0D4E901219047206A03
:1029C000401CF2E7E168204600278847050018D040
:1029D000A5F14100192802D820354FF4006732468E
:1029E000294620462760FDF7BBFB40B1012804D0F3
:1029F000F61D26F007060836D8E7361DD6E7284626
:102A0000DAE7206ABDE8F0812DE9F04106460024AE
:102A100010687529314616A510D0AFF30080002844
:102A200002DA404213A507E031688A0701D512A5F2
:102A300002E0490704D511A5012401E0AFF30080AD
:102A400000210A2206F1240709E0B0FBF2FCB0FBEA
:102A5000F2F302FB1C00303078541846491C002861
:102A6000F3D123462A463046BDE8F04100F00BB8CA
:102A7000000000002D0000002B00000020000000DE
:102A80007047704770472DE9F0470D4699469246CA
:102A9000044600F124080168880604D5E06921F0A5
:102AA0001001216000E00120A84201DD471B00E089
:102AB0000027A1697A1902EB0900081AA0612078A1
:102AC000C00602D42046AFF30080002608E0D4E917
:102AD00001211AF806009047206A401C761C2062EB
:102AE0004E45F4DB2078C0060AD52046AFF30080BF
:102AF00006E0D4E9012130209047206A401C206282
:102B0000381EA7F10107F4DC07E0D4E9012118F829
:102B100005009047206A401C2062281EA5F101058F
:102B2000F3DC2046AFF300802078000602D50220B7
:102B3000BDE8F0870120FBE701694A1C02610878C3
:102B4000704700B58FB0CDE90131002105910549ED
:102B50007944CDE9031011466846FFF721FF0FB015
:102B600000BD0000E5FFFFFF0A6802F8010B0A60E4
:102B70007047754600F02CF8AE460500694653468E
:102B800020F00700854618B020B5FEF751FABDE8E1
:102B900020404FF000064FF000074FF000084FF0C4
:102BA000000B21F00701AC46ACE8C009ACE8C00955
:102BB000ACE8C009ACE8C0098D46704710B50446C2
:102BC000AFF300802046BDE81040FDF7DBBA0000FF
:102BD00000487047E400002001491820ABBEFEE722
:102BE0002600020070470000082C000800000020AA
:102BF0005C00000028010008642C00085C00002034
:102C0000EC0600004401000800A24A040000000095
:102C1000000000000102030406070809000000008C
:102C200000000000000000008400002020000000E0
:102C300000000000A40000202000000000000000B0
:102C4000C400002020000000000000000000000080
:102C50000000000001020304010203040607080942
:042C6000020406085C
:04000005080000ED02
:00000001FF
