:020000040800F2
:10000000601A0020AD0100089D1600084116000886
:1000100099160008EB1400080D30000800000000DD
:100020000000000000000000000000001D27000884
:10003000EF140008000000003B020008312800080F
:10004000C7010008C7010008C7010008C701000870
:10005000C7010008C7010008C7010008C701000860
:10006000C7010008C7010008C7010008C701000850
:10007000C7010008C7010008C7010008C701000840
:10008000C7010008C7010008C7010008C701000830
:10009000C7010008C7010008C7010008C701000820
:1000A000C7010008C7010008C7010008C701000810
:1000B000C7010008C7010008C7010008C701000800
:1000C000C7010008C7010008C7010008C7010008F0
:1000D000C7010008E528000895290008492A0008FA
:1000E000C7010008C7010008C701000800F002F8B6
:1000F00000F04DF80AA090E8000C82448344AAF175
:100100000107DA4501D100F042F8AFF2090EBAE872
:100110000F0013F0010F18BFFB1A43F0010318473B
:10012000A03A0000C03A0000103A24BF78C878C155
:10013000FAD8520724BF30C830C144BF04680C60ED
:10014000704700000023002400250026103A28BF35
:1001500078C1FBD8520728BF30C148BF0B60704739
:10016000662903F06184642900F00A81732900F094
:100170006484002070471FB500F076FC0400002066
:10018000002103F0D3F9E0601FBD10B510BD00F0F1
:100190006FFD1146FFF7EFFF03F034F800F08DFD1F
:1001A00003B4FFF7F2FF03BC00F0D0FD094880471D
:1001B00009480047FEE7FEE7FEE7FEE7FEE7FEE749
:1001C000FEE7FEE7FEE7FEE704480549054A064B61
:1001D000704700004D280008ED0000086014002062
:1001E000601A00206016002060160020EFF31080D7
:1001F00072B6704780F310887047204C204D256000
:100200004FF0000484F309881E4C4FF0010525705F
:100210001D4C4FF08055256062B6FEE730B41A4C95
:100220004FF08055256030BC704730B4164C4FF00D
:100230008055256030BC704700BF72B6EFF309806F
:1002400028B1203880E8F00F10490968086000B52F
:100250000F4880475DF804EB0E480F490A7802709A
:100260000A480E490A680260106890E8F00F2030D2
:1002700080F309884EF0040E62B6704720ED00E06E
:100280000000FFFFC600002004ED00E0CC000020CD
:10029000E11C0008BB000020BC000020D4000020AE
:1002A0000FB4044910B503AA029800F0CBFB10BCB0
:1002B0005DF814FB600000200FB41CB5074B06AAC4
:1002C0007B4469460090059800F08DFB002069464C
:1002D00000F09CFB1CBC5DF814FB0000490700000B
:1002E00070B5044685690068C10601D5302600E076
:1002F0002026C00707D070BDD4E9012130469047C1
:10030000206A401C20626D1EF6D570BD70B5044693
:1003100085690078C00707D170BDD4E9012120208C
:100320009047206A401C20626D1EF6D570BD70B5E6
:100330000C460546012A05D02878800600D5EA69D2
:10034000002302E0012305E05B1C934202D2E05C43
:100350000028F9D1A869E618C01AA861286A1844CB
:1003600028622846FFF7BCFF04E0D5E9012114F814
:10037000010B9047B442F8D32846FFF7C7FF70BD82
:100380002DE9F0410646002410687529314616A56E
:1003900010D0AFF30080002802DA404213A507E036
:1003A00031688A0701D512A502E0490704D511A5D5
:1003B000012401E0AFF3008000210A2206F12407A6
:1003C00009E0B0FBF2FCB0FBF2F302FB1C003030A2
:1003D00078541846491C0028F3D123462A46304653
:1003E000BDE8F04100F092B8000000002D000000D0
:1003F0002B000000200000002DE9F0474FF0000A1C
:1004000089460446C0F820A02046E16888470028B5
:1004100076D0252806D0D4E901219047206A401CD7
:100420002062F1E7E168204600258847C4F81CA057
:1004300006460027C4F818A02A2E09D0304602F03C
:10044000FBFD38B304EB8708303EC8F8186019E0AC
:1004500059F8041B204604EB87029161E168884744
:10046000012F064618D1E069002820DA25F0200582
:100470001DE0D8F8180000EB800006EB4000303893
:10048000C8F818002046E1688847064602F0D4FD07
:100490000028EED1012F0AD02E2E08D12046E16887
:1004A00088477F1C0646022F45F02005C4DBA06963
:1004B000002803DA404245F00105A061E80701D0B9
:1004C00025F01005B6B1A6F14100192802D8203652
:1004D00045F400654A463146204625604D46FFF703
:1004E0003FFE58B1012806D0ED1D25F0070000F1B0
:1004F000080989E704E005F1040985E730468AE741
:10050000206ABDE8F0877047704770472DE9F047D3
:100510000D4699469246044600F124080168880673
:1005200004D5E06921F01001216000E00120A8421B
:1005300001DD471B00E00027A1697A1902EB0900E1
:10054000081AA0612078C00602D42046FFF7C8FE32
:10055000002608E0D4E901211AF806009047206A35
:10056000401C761C20624E45F4DB2078C0060AD57C
:100570002046FFF7B5FE06E0D4E901213020904780
:10058000206A401C2062381EA7F10107F4DC07E056
:10059000D4E9012118F805009047206A401C206228
:1005A000281EA5F10105F3DC2046FFF7AFFE2078F9
:1005B000000602D50220BDE8F0870120FBE7704766
:1005C0002DE9FF4F0C461E464FF0FF378BB0D2E9A6
:1005D0000001DDF860800A908A46C1F30A5505B92A
:1005E0003D46002108464FF00000BAF1000F00F42C
:1005F000400005DA00EB80004FF4400101EA5000B2
:100600004FEA9059B9F1010F00DDB9460A9850EA56
:100610004A000ED044F61050A5F2FF3545432F1482
:10062000B8F1000F1ED07542291E1EDDC9F100026F
:100630001CE0B8F1010F4FF0000001D0302103E0C1
:10064000F24305E02154401CB042FBDB304600225F
:10065000002121540B99C1F80880C1E900200FB096
:10066000BDE8F08FBD1B6D1CDEE74A4600DA69422B
:1006700006A800F083FA06AB93E8070003AB83E813
:10068000070050460A9900F068FB8DE80700A0F5C6
:1006900000501F3800900398002D0ADD42F21F0120
:1006A0004A460844002303A90390684600F0D1FDA0
:1006B00009E0A0F500504A461F38002303A9039023
:1006C000684600F0DBFD8DE807000004000C03D055
:1006D0004FF0FF30410800E01046B8F1000F03D0A2
:1006E0000022009215461EE0751E05D400F0C0F9E8
:1006F000303262556D1EF9D5B3460122084302D04F
:1007000000227F1C04E02078302801D100227F1EC7
:10071000002A099784D01DE0112D07DA00F0A8F90E
:10072000303262556D1C50EA0102F5D1084302D007
:100730000098C8B10EE00021681E05E0235C625CF1
:1007400063542254401E491C8142F7DBAB46A81B70
:10075000401E0990002004F80B000B98099AC0F87D
:100760000880C0E9002B7AE711264FF0000857E710
:100770002DE9F04F88460446D21D22F0070191B0C2
:10078000D1E90001CDE90A0102F042FC02460B98D2
:10079000C00F01D02D2007E02068810701D52B2054
:1007A00002E0202101EAC000032A099001D0072AB3
:1007B00005DB03464146204600F0A0F90BE1207816
:1007C000800601D5E06900E00620B8F1650F81469A
:1007D00006D0B8F1660F18D0B8F1670F70D131E0CC
:1007E0000020B9F1110F009001DB112301E009F1A4
:1007F00001030AAA01A90CA8FFF7E2FEDDE90C70CB
:10080000002609F10105834647E001204B46009090
:100810004FF000470AAA01A90CA8FFF7D1FEDDE9B5
:100820000DB00C995D46002610B909F101000D18B4
:10083000B9EB050003D4C0F1FF3609F10105A5EBC2
:1008400009002BE0B9F1010F01DA4FF00109002096
:10085000B9F1110F0090484601DD112300E0034675
:100860000AAA01A90CA8FFF7ABFEDDE90C704D4602
:1008700000268346207800070AD4AB4500DA5D469F
:1008800001A8012D04DD411911F8011C302907D000
:100890004F4502DA17F1040F04DA012082460FE017
:1008A0006D1EEEE7002F02DCED1B3E4403E0781CDA
:1008B000A84200DD7D1CB81B00F1010A4FF0004783
:1008C0002078000703D4AA4501DB4FF0FF3A00214E
:1008D000B7F1004F0DF143088DF8431024D00220EA
:1008E0002B23002F01DA7F422D230A21021EA0F1C3
:1008F000010000DC5FB197FBF1FC97FBF1F201FB1B
:100900001C7C17460CF1300C08F801CDEEE7A8F17D
:10091000010003702188090501D5452100E065210A
:10092000A0F1010800F8011C09980FA9A1EB080724
:10093000FF1D00B10120411901EBEA70A1693844A3
:10094000081A401EA0612078C00602D42046FFF796
:10095000C7FC099828B1D4E901219047206A401CBE
:1009600020622078C00622D52046FFF7B9FC1EE0A1
:10097000002E04DBB34502DD01A8805D00E03020DD
:10098000D4E901219047206A401C2062761CAAF11C
:1009900001005FEA000A0AD100F066F8C068016849
:1009A000405CD4E901219047206A401C2062281E47
:1009B000A5F10105DCDC07E0D4E9012118F8010B01
:1009C0009047206A401C2062381EA7F10107F3DC23
:1009D0002046FFF79BFC032011B041E601694A1C49
:1009E00002610878704700B58FB0CDE90131002170
:1009F000059105497944CDE9031011466846FFF792
:100A0000FBFC0FB000BD0000E5FFFFFF0A6802F825
:100A1000010B0A60704710B5436913B1AFF3008052
:100A200001E0FFF784FC012010BD127800F12401E1
:100A30000A7000224A700122EDE711684FF0FF3280
:100A4000E9E70000074B70B50D467B44FFF7CBFF8D
:100A50000446284600F004F910B14FF0FF3070BD95
:100A6000204670BD9F270000004870471C140020DE
:100A700030B5B0F10A024FEA900E71F100034EEA70
:100A8000817EB0EB0E0061EB91014FEA101E4EEA41
:100A9000017E10EB0E0041EB11114FEA102E4EEAD1
:100AA000016E10EB0E0041EB11214FEA104E4EEAA1
:100AB000014E10EB0E0041EB1141401841F10001D5
:100AC0004FEAD00040EA41704FEAD10110EB8005B7
:100AD0004FEA810444EA907444EB01046D1944EB3D
:100AE0000404521BA3414FF0000348BF0A3200D553
:100AF00030BD401C41F1000130BD00002DE9F04146
:100B00001F46044603260168072A01F4006004DB3F
:100B100008B116A505E016A503E008B115A500E08B
:100B200015A521F010002060A069C01EA0610FB1C2
:100B3000401EA0612046FFF7D3FB4FB1D4E901214D
:100B400038469047206A401C2062C01C206206E0A4
:100B5000206AFAE7D4E9012115F8010B9047761EC7
:100B6000F8D22046FFF7D2FBBDE8F0814E414E009F
:100B70006E616E00494E4600696E66002DE9F047D1
:100B8000814616468AB0354878440DC88DE80D0078
:100B900032487844801C03AC0DC884E80D0041F64F
:100BA0009B300844372190FBF1F290FBF1F5A5F161
:100BB000800501FB12041B3C02D56442012000E0C9
:100BC0000020DFF898A080460027FA44AAF1BE0A68
:100BD0000EE0E0070AD03246684607EB47010123E2
:100BE0000AEB810100F04AFB8DE8070064107F1CCE
:100BF000002CEED1194F7F44AE3F19E0E80715D025
:100C000007EB04100DF1180A90E80E008AE80E00B8
:100C1000C068F04201D1981908903246012306A914
:100C200003A800F02BFB03AB83E807006D10641CE6
:100C3000002DE3D14FF0010332466946B8F1000FB1
:100C400003A802D000F005FB01E000F017FBC9E9A2
:100C50000001C9F808200AB0BDE8F0871C30000088
:100C6000007B00F08000704700487047FC130020B4
:100C70007546FFF7F9FFAE4605006946534620F07A
:100C80000700854618B020B5FFF79EFABDE8204062
:100C90004FF000064FF000074FF000084FF0000B38
:100CA00021F00701AC46ACE8C009ACE8C009ACE8EB
:100CB000C009ACE8C0098D46704710B50446AFF3D3
:100CC00000802046BDE81040FFF76ABA4FF0013CB3
:100CD00050F8042B51F8043B9A4221D1A2EB0C03AB
:100CE000934313EACC1317D150F8042B51F8043B6B
:100CF0009A4215D1A2EB0C03934313EACC130BD108
:100D000050F8042B51F8043B9A4209D1A2EB0C0392
:100D1000934313EACC13DBD04FF00000704700BFC1
:100D2000D01A01BAB1FA81F101F0180122FA01F0EA
:100D3000CB40C1F12001DBB2C0B2C01A2CFA01F3E2
:100D4000D11A914311EAC311E6D170470149182025
:100D5000ABBEFEE72600020070475FEA400C08BF0A
:100D600091F0000F4FEA8C234FEAC12243EA515120
:100D70004FEA1C5018BF00F5F0404FEA300018BF92
:100D800041F000415FEA6C5C00F02980BCF1FF3F5C
:100D900008BF40F080407047130C06BF12044FF0AC
:100DA000100C4FF0000C130E04BF12020CF1080CD3
:100DB000130F04BF12010CF1040C930F04BF920037
:100DC0000CF1020CD30F04BF52000CF1010C1146C0
:100DD0004FF00002A0F11F00A0EB0C00704711F0D3
:100DE000004F08BF704731F000413FF4D5AF0B0C06
:100DF00006BF09044FF0100C4FF0000C0B0E04BF9F
:100E000009020CF1080C0B0F04BF09010CF1040CD2
:100E10008B0F04BF89000CF1020CCB0F04BF4900FB
:100E20000CF1010CCCF12003A0EB0C0022FA03F32F
:100E300002FA0CF241EA030100F10100704720F0D0
:100E40007F4C80EA030023F07F47ACEB070303F5F8
:100E50007C5300F0004003F1FF032DE980494FEA85
:100E6000154B09B44FEA144325EA0B4E24EA034814
:100E70000FF2042606EB132749083E785FEA320298
:100E800003FB0667C7F5000707FB06F64FEA543772
:100E90004FEAD64606F1020607FB066CCCF1005C71
:100EA0004FEA1C472CEA074C07FB06F40CFB06F53F
:100EB00004EB15464FEA961634BF00204FF0004071
:100EC0004FEAD13706FB07FC4FEA1C4C0CFB0BF733
:100ED000D21B03FB0CF761EB07010CFB0EF7B0EB29
:100EE000074072EB17420CFB08F734BFA2EB074236
:100EF000B2EB074261EB17414FEA0C444FEA91070E
:100F000006FB07FC4FEA1C4C0CFB0BF7B0EBC74091
:100F100072EB573203FB0CF734BFA2EBC742B2EBC4
:100F2000C74261EB57310CFB0EF7B0EBC70072EB19
:100F300057720CFB08F734BFA2EBC702B2EBC70233
:100F400061EB5771039F4FEA816141EA921104EB13
:100F5000CC044FEAD1374FEA826206FB07FC42EA33
:100F600090124FEA80604FEA1C4C0CFB0BF7D21B2F
:100F700003FB0CF761EB07010CFB0EF7B0EB07402E
:100F800072EB17420CFB08F734BFA2EB0742B2EB3F
:100F9000074261EB17414FEA8C554FEA910704EB8A
:100FA0009C2406FB07FC4FEA1C4C0CFB0BF7B0EB38
:100FB000C74072EB573203FB0CF734BFA2EBC742BA
:100FC000B2EBC74261EB57310CFB0EF7B0EBC70039
:100FD00072EB57720CFB08F734BFA2EBC702B2EBFF
:100FE000C70261EB577115EB4C254FEA816141EA6D
:100FF00092114FEA82624FEAD13742EA901206FB21
:1010000007FC44F100044FEA80604FEA1C4C0CFBE3
:101010000BF7D21B03FB0CF761EB07010CFB0EF780
:10102000B0EB074072EB17420CFB08F734BFA2EBA2
:101030000742B2EB074261EB174115EB1C154FEA73
:10104000813141EA92414FEA823242EA90424FEACC
:1010500080304FEA0C7644F1000448EA03434EEA3C
:101060000B484FF0000EB2EB080C71EB030724BFE6
:10107000624639464EEB0E0E4FF0000B00185241FF
:1010800049414BEB0B0BB2EB080C71EB03077BF107
:10109000000B24BF624639464EEB0E0E4FF0000B9C
:1010A0000018524149414BEB0B0BB2EB080C71EBB2
:1010B00003077BF1000B24BF624639464EEB0E0E50
:1010C00051EA020718BF46F0010616EB0E7655F1FD
:1010D000000254F1000103D5BDE88901BDE8008894
:1010E000BDE88901BDE80048B619524141EB010154
:1010F000A3F10103704780807F7E7D7C7B7A7978C5
:10110000777676757473727171706F6E6E6D6C6CCC
:101110006B6A6A696868676666656464636362616E
:101120006160605F5F5E5E5D5D5C5C5B5B5A5A59EF
:10113000595858575756565555555454535352525B
:101140005251515050504F4F4F4E4E4D4D4D4C4CB3
:101150004C4B4B4B4A4A4A494949484848474747FC
:101160004746464645454544444444434343434239
:10117000424242414141002B9C4630D477002BD063
:101180001CB54FEA370703B44FF010004FF01001C1
:10119000BAF1000F06D0BCF1000FDCBF40F0080030
:1011A00040F008014FF000000FBCBDE810400BF10B
:1011B000010BBBF1010F08BF5FEA170722BF12F155
:1011C000010211F101014FF0004143F1000300F071
:1011D000004043EA00007047F9D35708D0E746EAD9
:1011E000064613F1400F4FEA16461FDD13F1200F9C
:1011F000DFBF16430A46002120335B42BED0C3F155
:10120000200746EA064602FA07F74FEA164646EA7C
:101210000706C3F1200722FA03F201FA07F721FAC1
:1012200003F14FF0000342EA0702A7E746EA02068D
:1012300046EA06464FEA164646EA0106BCBF46EABB
:101240000646360C4FF000034FF000024FF000014D
:1012500094E72DE9804C9A46934670B491E83800A3
:1012600007C831EA400C48BF34EA430C03D5FFF706
:10127000E6FDFFF780FFF0BCBDE8008C2DE9804C57
:101280009A46934670B491E8380007C810F0804F32
:1012900008BF13F0804F03D100F005F8FFF76BFF94
:1012A000F0BCBDE8008C20F07F4780EA030023F00B
:1012B0007F4C07EB0C03A3F57C5300F00040A3F137
:1012C000FE0392F0000F00F0B38095F0000F00F0E5
:1012D00077802DE901494FEA11404FEA144621EA8F
:1012E000004800FB06FC24EA064708FB06F607FB5D
:1012F00008F800FB07F718EB06484CEB164C4FEAD2
:10130000124B18EB07484FEA15464CEB174022EA00
:101310000B4E0BFB06FC25EA06470EFB06F607FB09
:101320000EFE0BFB07F71EEB064E4CEB164C4FF078
:1013300000061EEB074E4CEB174B18EB0B0840F169
:10134000000018EB0E0B58EB000840F100008F1A5C
:101350004FF000013CBFC943661B14BFB5EB040C42
:1013600000213CBFC943F61B4FEA17444EEA8E0EDC
:1013700027EA04454FEA1C4704FB07622CEA074CA6
:1013800005FB07F70CFB05F604FB0CFC16EB074608
:1013900042EB174216EB0C4642EB1C421BEB0606D7
:1013A00058EB0202414146EA9E0601D5BDE801899B
:1013B000B619524141EB0101A3F10103BDE80189D6
:1013C0004FEA14454FEA114724EA054621EA074C43
:1013D00005FB07F406FB07F70CFB06F105FB0CFC0D
:1013E00011EB074144EB17444FEA124711EB0C4154
:1013F00044EB1C4422EA074C05FB07F206FB07F707
:101400000CFB06F605FB0CFC16EB074642EB1742FD
:1014100016EB0C4642EB1C456A1854F1000148BF1C
:101420007047B619524141EB0101A3F10103704726
:1014300095F0000F37D04FEA11424FEA144721EAE6
:10144000024624EA074C02FB07F106FB07F70CFBF8
:1014500006F402FB0CFC14EB074441EB17414FEA86
:10146000154714EB0C4441EB1C4125EA074C02FBE9
:1014700007F506FB07F70CFB06F602FB0CFC16EB68
:10148000074645EB174516EB0C4645EB1C42121977
:1014900051F1000148BF7047B619524141EB0101BB
:1014A000A3F1010370474FEA14454FEA114724EABC
:1014B000054621EA074C05FB07F106FB07F70CFB85
:1014C00006F24FF0000605FB0CFC12EB074241EB65
:1014D000174112EB0C4251EB1C4148BF7047921868
:1014E00041EB0101A3F10103704700BFFEE7704724
:1014F0002DE9F041024600250026002000230024AB
:10150000002791F803C00CF00F0591F803C00CF010
:10151000100CBCF1000F03D091F802C04CEA050595
:1015200091F800C0BCF1000F31D0146800202BE00E
:101530004FF0010C0CFA00F3B1F800C00CEA0306FE
:101540009E4220D183004FF00F0C0CFA03F7BC43EE
:1015500005FA03FC4CEA040491F803C0BCF1280F1F
:1015600006D14FF0010C0CFA00FCC2F814C00AE0DE
:1015700091F803C0BCF1480F05D14FF0010C0CFAF3
:1015800000FCC2F810C0401C0828D1D31460B1F888
:1015900000C0BCF1FF0F34DD546800202EE000F1E4
:1015A000080C4FF0010808FA0CF3B1F800C00CEA7F
:1015B00003069E4221D183004FF00F0C0CFA03F773
:1015C000BC4305FA03FC4CEA040491F803C0BCF1E7
:1015D000280F05D100F1080C08FA0CF8C2F81480A5
:1015E00091F803C0BCF1480F07D100F1080C4FF08F
:1015F000010808FA0CF8C2F81080401C0828CED365
:101600005460BDE8F0810246002093680B400BB1A6
:10161000012000E000207047416170470161704780
:10162000F8B506460C461546ADF800408DF8035057
:1016300003208DF8020069463046FFF759FFF8BDD8
:1016400000BFFEE708B50121182000F085FF4FF428
:101650004260ADF8000010208DF8030003208DF8E3
:10166000020069460A48FFF743FF20210848FFF7B8
:10167000D5FF4FF40050ADF8000069460548FFF76C
:1016800037FF4FF400510348FFF7C8FF08BD0000C3
:10169000000C01400010014000BFFEE77047000051
:1016A00070B5002100230F22C47804B3154C2468C0
:1016B00004F4E064C4F5E064210AC1F10403CA4003
:1016C000447804FA03F184781440214309010E4C54
:1016D0000678A155047804F01F050124AC40057874
:1016E0006D11AD0005F1E025C5F8004109E0047871
:1016F00004F01F050124AC40044D0678761145F82E
:10170000264070BD0CED00E000E400E080E100E068
:1017100002490143024A1160704700000000FA05C7
:101720000CED00E010B500F013F800F0F3FB00F052
:101730001BFC00F03BFC00F0C3FB00F095FB00F04D
:10174000CFFC00F073FC00F099FC00F002F810BD33
:101750007047704706480078012808D1054800788E
:10176000FF2804D203480078401C024908707047E3
:10177000C6000020B900002010B500241A480078E7
:10178000012830D1FEF732FD04461848007820B118
:1017900016480078401E1549087014480078F8B9BA
:1017A00013480078E0B900F0FDFC124812490978AE
:1017B00050F82100114908600F4800781049097855
:1017C00088420DD00D480068806B401C0B490968A9
:1017D00088630C480068401C0A490860FEF725FD34
:1017E0002046FEF707FD10BDC6000020B90000200E
:1017F000BA000020940E0020BC000020D40000207D
:10180000BB000020A000002070B5054600260F4850
:10181000007808B1002070BDFEF7E8FC06460C48D1
:101820000468006820B10A480068406808490860F8
:101830003046FEF7DFFC3CB1012020700020208103
:101840006560204600F001FB2046E4E7B900002077
:10185000A400002010B500240B480078012811D105
:10186000FEF7C4FC04460948007840B908480078EF
:10187000FF2804D206480078401C0549087020461D
:10188000FEF7B8FC10BD0000C6000020B900002023
:10189000BA00002010B5002413480078012821D197
:1018A000FEF7A4FC044611480078C0B10F48007848
:1018B000401E0E4908700846007860B90C48007850
:1018C00028B92046FEF796FC00F032FC0AE02046DC
:1018D000FEF790FC06E02046FEF78CFC02E0204676
:1018E000FEF788FC10BD0000C6000020BA000020F2
:1018F000B900002010B50B48007890B900F052FCF8
:10190000094800780949087009480749097850F8DA
:101910002100084908600846006807490860FEF78A
:101920006CFC10BDC6000020BC000020BB000020E5
:10193000940E0020D4000020CC000020704700004E
:101940002DE9FE4F06460F4690461C464FF0000913
:10195000FEF74CFC81461F48007828B14846FEF748
:1019600049FC3C20BDE8FE8F1B4850F8240060BBBA
:101970000120194941F824004846FEF73BFC0023AA
:1019800042463946304600F009F982460020009070
:1019900001900346024651460290204600F018FC92
:1019A000054635B90D48007801280CD100F0C0FB80
:1019B00009E0FEF71BFC81460020074941F824009E
:1019C0004846FEF717FC2846CCE74846FEF712FCCF
:1019D0002820C7E7B9000020940E0020C600002090
:1019E0002DE9F04F85B081468A4693461C46DDE9D5
:1019F0000F78129D00200390FEF7F8FB0390234818
:101A0000007830B10398FEF7F5FB3C2005B0BDE847
:101A1000F08F1F4850F8240088BB01201C4941F872
:101A200024000398FEF7E6FB2A464146384600F0BC
:101A3000DFFC2B465A465146484600F0AFF804906A
:101A40001198CDE9008002953A4620460E9B0499F4
:101A500000F0BEFB064636B90E48007801280CD1CE
:101A600000F066FB09E0FEF7C1FB03900020084987
:101A700041F824000398FEF7BDFB3046C6E7FFE7B8
:101A80000398FEF7B7FB2820C0E70000B90000204C
:101A9000940E0020C6000020704770472DE9F041E9
:101AA00006460F4614464FF000081548007818B156
:101AB00012202070BDE8F081FEF798FB8046FF2ED3
:101AC00003D11048006890F832600F4850F8265053
:101AD0002DB94046FEF78EFB43202070EAE7012D2A
:101AE00005D14046FEF786FB43202070E2E7EF6415
:101AF0004046FEF77FFB0020207000BFDAE70000C1
:101B0000B9000020CC000020940E00207047000097
:101B10002DE9F04707460D464FF0000A00202860E7
:101B20006860FEF763FB8246FF2F03D11948006807
:101B300090F83270184850F827402CB95046FEF7FC
:101B400059FB4320BDE8F087012C04D15046FEF735
:101B500051FB4320F6E7207C00F0010020B95046FD
:101B6000FEF748FB4520EDE70026D4F80C90D4F8AA
:101B700008805046FEF73EFB00E0761C58F8041B38
:101B80000029FAD0B0002860A9EB06008000686048
:101B90000020D7E7CC000020940E002070B504464A
:101BA00010464FF080750560051F28462C606FF0C9
:101BB0000106051F28462E604FF01236051F2846E5
:101BC0002E604FF00336051F28462E604FF0023678
:101BD000051F28462E607610051F28462E60051F1B
:101BE000284629604FF01136051F28462E604FF019
:101BF0001036051F28462E604FF00936051F28466F
:101C00002E604FF00836051F28462E604FF007362D
:101C1000051F28462E604FF00636051F28462E6009
:101C20004FF00536051F28462E604FF00436051F7D
:101C300028462E6070BD00002DE9F04105464FF0AA
:101C40000008FEF7D3FA8046FF2D05D12048006832
:101C500090F83250012608E01D48006890F83200E4
:101C6000A84201D1012600E000261A4850F825407C
:101C70002CB94046FEF7BEFA4820BDE8F081012CA1
:101C800004D14046FEF7B6FA4320F6E794F83470E4
:101C90001148C05D94F8351088430F49C85508466F
:101CA000C05D30B994F836100C48007888430B4971
:101CB000087094F8300040F0080084F83000404686
:101CC000FEF798FA012E01D100F032FA0020D4E795
:101CD000CC000020940E0020BE000020BD0000209B
:101CE0007047000070B5054600261748007800B11F
:101CF00070BD1648007800B1FAE71DB3FEF776FA1A
:101D000006461348006890F834401248005D1049B8
:101D1000096891F8351088430E4908550846005D5A
:101D200040B90B48006890F836100B48007888439B
:101D30000949087006480068C5623046FEF75AFA3D
:101D400000F0F6F900BFD3E7B9000020BA00002088
:101D5000CC000020BE000020BD00002070B5002691
:101D600000F072F8FEF742FA064631480068401C5F
:101D70002F4908603046FEF73DFA2E4800780128CA
:101D800053D12D48007820B1012804D0022809D170
:101D900003E001250BE0002509E00125012026498B
:101DA000087004E0012500202349087000BF00BF2F
:101DB00005B970BD2148046833E0FEF717FA0646FE
:101DC000E06A50B3E06A401EE062E06A28BB94F823
:101DD000300000F0370040B114F8300F00F0C800B8
:101DE000207001206070303C02E0002084F8310057
:101DF00094F8300000F0080078B93434A078104925
:101E0000097808430E49087020780E49085C61780B
:101E1000084314F834190B4A505464693046FEF7ED
:101E2000E9F994F832003F28C7D100BFC1E70000AC
:101E3000E4000020C6000020DC000020D8000020C4
:101E4000BD000020BE0000207047014600228A72BB
:101E5000002005E0002301F10B021354421CD0B214
:101E60000828F7D3704700002DE9F04150211148B0
:101E700000F02CF900250DE0681C86B20D4800EB3F
:101E8000051400EB06170020207067600AA0E060D0
:101E9000681C85B2042DEFD3064800EB0514002022
:101EA0002070606004A0E060024804490860BDE85A
:101EB000F0810000440A00203F000000A80000203C
:101EC00070B5C821114800F001F900230FE0581C3B
:101ED00085B203EB83000D4901EB800405EB85001F
:101EE00001EB8006002020706660581C83B2092B2D
:101EF000EDD303EB8300054901EB80040020207043
:101F0000606008460249086070BD00007C0900203E
:101F1000A400002000200A4908600A4908700A4904
:101F200008700A4908700A4908700A4908600A4995
:101F300008600A4908600A4908600A490870704741
:101F4000E4000020B9000020BA000020C7000020F3
:101F5000C6000020A0000020C8000020B40000201F
:101F6000B0000020B800002000210A4A11700020B3
:101F700004E00021084A1154411CC8B20828F8D3D3
:101F80000021064A1170064A1170064A1160064A7D
:101F900011607047BD000020BE000020BB00002083
:101FA000BC000020D4000020CC00002070B54FF40D
:101FB0007C71194800F08AF84FF48071174800F0DE
:101FC00085F8002413E0601CC5B2C4EBC40000EB2C
:101FD0004000114901EB8003C5EBC50000EB400058
:101FE00001EB80065E610EA0D864601CC4B20B2CAD
:101FF000E9D3C4EBC40000EB4000074901EB8003C8
:102000000020586106A0D8640020064908600248F4
:102010000549086070BD0000940F0020940E002058
:102020003F000000D8000020D000002000B587B09D
:102030000320002180220A4BCDE90132CDE90310B3
:102040004FF6FF703F23074A00900748FFF7C8FC90
:1020500006AA06A13F20FFF721FD07B000BD000042
:10206000940C0020900E00200523000875432F4F8C
:10207000532D49492049646C6500000000B587B0C4
:102080000320002180220A4BCDE90132CDE9031063
:102090004FF6FE703E23074A00900748FFF7A0FC6A
:1020A00006AA06A13E20FFF7F9FC07B000BD00001C
:1020B000940A0020900C00202D23000875432F4F18
:1020C000532D4949205374617400000004E000223C
:1020D00000F8012B4A1E91B20029F8D17047000088
:1020E0002DE9F04178211048FFF7F0FF00240DE0C2
:1020F000601C86B204EB44000B4901EBC00506EB03
:10210000460001EBC0072F60601C84B2042CEFD3A3
:1021100004EB4400044901EBC00500202860084698
:1021200002490860BDE8F08184130020E00000202F
:1021300010B50024FEF75AF8044613480078F8B9A1
:1021400012480078E0B900F02DF8114811490978DB
:1021500050F82100104908600E4800780F490978AE
:1021600088420DD00C480068806B401C0A49096801
:1021700088630B480068401C09490860FEF74EF868
:102180002046FEF737F810BDB9000020BA00002045
:10219000940E0020BC000020D4000020BB000020D2
:1021A000A00000200649074A1278885C0649095CAD
:1021B000034A515C01EBC001044A117070470000F2
:1021C0002C3A0008BD000020BE000020BC0000200A
:1021D0002DE9F84F05460F4690469946DDE90AABD2
:1021E00000200090FEF702F800903F480468002CA1
:1021F00074D0183454F8040C3B4908600098FDF77B
:10220000F9FF44F8187CA57600202076607660619E
:1022100044F814BC44F80CAC44F8108C0C9824F826
:10222000080C24F8069C0020E077E810207705F0E1
:102230000700E076217F01208840A077E17E012021
:102240008840607700206060E060A0602062A0624B
:102250006062E062206325A06063183C002606E00F
:10226000002104F1500040F82610701CC6B2002E68
:10227000F6D02046FFF762FB2046FFF70DFCFDF786
:10228000B5FF00901A4840F825401A480068606180
:102290000020A0611748006810B1164800688461EA
:1022A000144804603434A07813490978084312496B
:1022B000087020781149085C6178084314F83419D3
:1022C0000E4A50540E480078401C0D490870009882
:1022D000FDF790FF0020BDE8F88FFFE70098FDF7BD
:1022E00089FF4220F7E70000D00000203F000000F7
:1022F000940E0020D8000020BD000020BE00002069
:10230000C7000020002400BF00BFFDF76FFF044698
:1023100005480068401C044908602046FDF76AFF34
:10232000FFF7BBFBF1E70000C8000020002400BF5E
:1023300002E02820FFF7D6FC194800780028F8D0E2
:10234000184800686421B0FBF1F01649086008469F
:10235000006828B9002014490870FF20FFF76CFCC2
:1023600000BFFDF743FF04461048006810490860AD
:1023700000200E4908602046FDF73CFF0C4800682D
:1023800008490968B0FBF1F0C0F164000649087023
:10239000FFF7BCFB00F00EF81420FFF7A3FCE0E70A
:1023A000B8000020B0000020AC000020C8000020D1
:1023B000B40000207CB5002514E069462846FFF7EC
:1023C000A7FB064666B9094850F8254044B1012CE0
:1023D00006D0D4E9020100EB810060640198A0649A
:1023E000681CC5B23F2DE8D97CBD0000940E0020CA
:1023F00002F0010343B102F002032BB102E0491ED7
:10240000002308C00029FAD17047000070B50025EC
:10241000002424E014224FF400711348FFF700F960
:102420004FF400711048FFF7F7F8022000F070FE3B
:102430000422D1010C48FFF7F3F8082000F068FEF1
:102440004FF400710848FFF7DEF818B10120A040F2
:102450002843C5B2782000F05BFE601CC4B2082C93
:10246000D8DB284670BD0000000C014010B51422D6
:102470004FF400710D48FFF7D3F84FF400710B488B
:10248000FFF7CAF84FF4FA7000F042FE0422D101BF
:102490000648FFF7C5F84FF4FA7000F039FE042241
:1024A000D1010248FFF7BCF810BD0000000C01404C
:1024B00070B50446002529E014224FF40071154838
:1024C000FFF7AEF84FF400711248FFF7A5F80220AD
:1024D00000F01EFE04F0010028B14FF400710D4819
:1024E000FFF79CF804E04FF400710A48FFF794F8F6
:1024F00064103C2000F00CFE0422D1010548FFF7D7
:102500008FF8022000F004FE681CC5B2082DD3DB52
:1025100070BD0000000C014029B1064AD269024397
:10252000044BDA6104E0034AD2698243014BDA6169
:10253000704700000010024029B1064A12690243A8
:10254000044B1A6104E0034A12698243014B1A6189
:10255000704700000010024029B1064A9269024308
:10256000044B9A6104E0034A92698243014B9A61E9
:10257000704700000010024029B1064AD2680243A9
:10258000044BDA6004E0034AD2688243014BDA600C
:10259000704700000010024030B5002100220024E6
:1025A00000232D4D6D6805F00C0121B1042905D0E3
:1025B000082923D105E0294D056022E0274D05605B
:1025C0001FE0254D6D6805F47012234D6D6805F40C
:1025D0008034022505EB92421CB9214D554305601C
:1025E0000BE01D4D6D6805F400351DB11C4D5543C4
:1025F000056002E0194D5543056002E0174D056086
:1026000000BF00BF144D6D6805F0F0010909154DBC
:102610006B5C0568DD4045600F4D6D6805F4E06159
:10262000090A104D6B5C4568DD4085600A4D6D6898
:1026300005F46051C90A0B4D6B5C4568DD40C5600F
:10264000054D6D6805F44041890B074D6B5CC5680D
:10265000B5FBF3F5056130BD0010024000127A00B1
:1026600000093D008C0000209C00002012E000F0DA
:102670007DFD094908600846006801F05FF90446DD
:1026800022460B4605A10948FDF716FE4FF4FA60F5
:1026900000F008FDEBE700003000002054656D708D
:1026A0003A2025332E3266206F43000008090020AF
:1026B0000348008840F0100001490880704700007E
:1026C00004280040034800884FF6EF710840014994
:1026D0000880704704280040002103480188001F3B
:1026E000008841EA004070471C28004000B50246BF
:1026F000FFF7DEFF100C03490880091D0A80FFF771
:10270000E1FF00BD1828004000BF0348008800F02A
:1027100020000028F9D0704704280040704710B509
:1027200000F002F810BD00000CB5002001900090F0
:102730003348006840F480303149086000BF3048B9
:10274000006800F4003000900198401C019000984F
:1027500018B90198B0F5A06FF1D12948006800F4CC
:10276000003010B10120009001E00020009000989E
:10277000012843D12348006840F010002149086037
:102780000846006820F0030008600846006840F032
:10279000020008601A4840681949486008464068C5
:1027A00048600846406840F48060486008464068D9
:1027B00020F47C1048600846406840F4E810486007
:1027C0000846006840F08070086000BF0C48006850
:1027D00000F000700028F9D00948406820F003009C
:1027E000074948600846406840F00200486000BF62
:1027F0000348406800F00C000828F9D10CBD000027
:102800000010024000200240042808D14FF0E021CF
:10281000096941F004014FF0E022116107E04FF037
:10282000E021096921F004014FF0E02211617047B5
:1028300010B505480078012805D1FEF78BFFFFF79A
:102840008DFAFEF799FF10BDC600002010B51348A1
:10285000006840F0010011490860084640681049CE
:1028600008400E494860084600680E4908400B4978
:1028700008600846006820F4802008600846406828
:1028800020F4FE0048604FF41F008860FFF747FF08
:102890004FF000600449086010BD000000100240C5
:1028A0000000FFF8FFFFF6FE08ED00E010B5FFF7AF
:1028B0002BFF094909684FF461625143074A1268C6
:1028C000C2EB021201EB8201054A12688818FFF779
:1028D0000DFFFFF719FF10BD480000204C0000203D
:1028E0005000002010B540F22551064800F0C8F90C
:1028F00030B10448001D0088C1B2034800F05CFA02
:1029000010BD0000003801406400002010B50446EE
:10291000E4B901210520FFF71FFE01218803FFF71D
:102920001BFE4FF40070184908801820C87003205F
:1029300088701648FEF7DCFD4FF48060124908806D
:102940000420C8701148FEF7D3FD1BE0012C19D1FB
:1029500001210820FFF700FE01218803FFF7FCFD9D
:102960004020094908801820C87003208870084852
:10297000FEF7BEFD8020044908800420C87004488A
:10298000FEF7B6FD10BD00008800002000080140E1
:10299000000C014010B540F22551064800F070F9D6
:1029A00030B10448001D0088C1B2034800F004FAA9
:1029B00010BD0000004400407000002010B5044627
:1029C00001214804FFF7A8FD022C1AD1012104209F
:1029D000FFF7C2FD01214804FFF79EFD04201749BF
:1029E00008801820C870032088701548FEF780FD05
:1029F0000820124908800420C8701148FEF778FDAD
:102A00001BE0032C19D101212020FFF7A5FD012196
:102A10004804FFF781FD2020084908801820C8706D
:102A2000032088700748FEF763FD402003490880B3
:102A30000420C8700348FEF75BFD10BD880000202D
:102A4000000801400014014010B540F2255106482D
:102A500000F016F930B10448001D0088C1B20348E7
:102A600000F0AAF910BD0000004800407C000020E2
:102A700010B5044601218804FFF74EFD042C1AD13D
:102A800001210820FFF768FD01218804FFF764FD9C
:102A90002002284908801820C87003208870264822
:102AA000FEF726FD6002234908800420C8702248F2
:102AB000FEF71EFD3CE0052C1CD101211020FFF784
:102AC0004BFD01218804FFF747FD4FF48060194951
:102AD00008801820C870032088701848FEF708FD89
:102AE0004FF40060134908800420C8701348FEF7B3
:102AF000FFFC1DE0062C1BD101212020FFF72CFD3F
:102B000001218804FFF728FD4FF4807009490880EF
:102B10001820C870032088700948FEF7E9FC4FF4BC
:102B20000070044908800420C8700548FEF7E0FCE6
:102B300010BD000088000020000C01400010014082
:102B40000014014010B50346184600F01BF9044676
:102B5000E08808B9012010BD0020FCE710B504464C
:102B6000204600F00FF90346D8889988884201D1A1
:102B7000012010BD0020FCE721B1828942F40052FF
:102B8000828104E082894DF6FF731A40828170478A
:102B900010B504462048844209D101218803FFF77B
:102BA000EBFC00214FF48040FFF7E6FC32E01B48CD
:102BB000844209D101214804FFF7BEFC00214FF4F3
:102BC0000030FFF7B9FC25E01548844209D1012106
:102BD0008804FFF7B1FC00214FF48020FFF7ACFC24
:102BE00018E01048844209D10121C804FFF7A4FC71
:102BF00000214FF40020FFF79FFC0BE00A488442BD
:102C000008D101210805FFF797FC00214FF480103F
:102C1000FFF792FC10BD0000003801400044004066
:102C200000480040004C00400050004073B506468C
:102C3000304600F0A7F80346DD885C890FE09888ED
:102C4000A04200D10024186800579DF80410884263
:102C500001D101207CBD601C84B2681E85B2002DAC
:102C6000EDDC0020F6E702460020B1F5007F00D140
:102C700000BF13880B400BB1012000E0002070471B
:102C800070B50246002400230025002040F66A1695
:102C9000B14200D100BFC1F3421501F01F0301266C
:102CA00006FA03F3012D02D19689334006E0022D86
:102CB00002D1168A334001E0968A33400C12012675
:102CC00006FA04F41688344013B10CB1012000E078
:102CD000002070BD30B504460025204600F052F8B3
:102CE0000346D88800280EDD58899988884201D18A
:102CF000002058815989186845565889401C5881C8
:102D0000D888401ED880E8B230BDF0B507460D46E1
:102D1000164600243846FFF715FF40B90A21384609
:102D2000FFF784FF28B93846FFF718FF08B90020DD
:102D3000F0BD0BE03846FFF7CDFF2855285D0A2887
:102D400002D1601C84B204E0601C84B2701EA042F8
:102D5000F0DC00BF002028552046E9E70146064A7E
:102D6000914200D10020054A914200D10120044A3D
:102D7000914200D1022070470038014000440040D9
:102D8000004800400146064A914200D10548064AE3
:102D9000914200D10548064A914200D1054870474A
:102DA0000038014064000020004400407000002012
:102DB000004800407C00002010B5C28883889A42F9
:102DC0000FDA028983889A4201D1002202814AB235
:102DD000048903681A550289521C0281C288521C58
:102DE000C28010BDF0B50346002400260025002057
:102DF00040F66A17B94200D100BF1846C1F3421429
:102E000001F01F06012707FA06F5012C01D10C304D
:102E100004E0022C01D1103000E014301AB1076830
:102E20002F43076002E00768AF430760F0BD000072
:102E30002DE9F04786B005460E460024A24600BFA5
:102E4000A1460027B08900B100BF2F462C8A4CF65E
:102E5000FF700440F08804432C82AC894EF6F310D6
:102E60000440B08831890843718908430443AC8128
:102E7000AC8A4FF6FF400440B0890443AC8201A8FD
:102E8000FFF78AFB1F48874202D1DDF810A001E05E
:102E9000DDF80CA0A88900F4004040B10AEBCA009C
:102EA00000EB0A1031684900B0FBF1F807E00AEBCB
:102EB000CA0000EB0A1031688900B0FBF1F8642009
:102EC000B8FBF0F004012009642101FB1089A889F6
:102ED00000F4004040B1322000EBC900B0FBF1F03B
:102EE00000F00700044308E0322000EB09106421E1
:102EF000B0FBF1F000F00F0004432C8106B0BDE8F8
:102F0000F08700000038014013B5044600BF80215F
:102F10002046FFF7A8FE0028F9D09DF80400A08005
:102F20001CBD000070B586B004460D4616460296DC
:102F30003348844212D12846FFF7E8FC25208DF85B
:102F400004000020ADF814000C20ADF812000020A1
:102F5000ADF81000ADF80E00ADF80C002948844221
:102F600012D12846FFF72AFD26208DF80400002004
:102F7000ADF814000C20ADF812000020ADF81000E0
:102F8000ADF80E00ADF80C001F48844212D128465F
:102F9000FFF76EFD27208DF804000020ADF8140027
:102FA0000C20ADF812000020ADF81000ADF80E00B6
:102FB000ADF80C0000212046FFF7DEFD2046FFF7AC
:102FC000E7FD02A92046FFF733FF01212046FFF766
:102FD000D3FD012240F225512046FFF703FF0120D7
:102FE0008DF8070000208DF805002046FFF7B6FE9B
:102FF0008DF8060001A8FEF753FB06B070BD000077
:1030000000380140004400400048004000BFFEE797
:10301000490050EAC12018BF04204A0D18BF40F0F3
:10302000010040F2FF72B2EB515F08BF40F00200B6
:10303000012808BF0520704730380A2801D2012036
:10304000704700207047000010B56FF00400FFF7D4
:10305000DBFB104800681049B0FBF1F00F49087025
:103060000C4800680C49B0FBF1F441F2883044434D
:1030700005200B4908804FF0E020006940F0020075
:103080004FF0E021086108464461006940F001000A
:10309000086110BD3400002000127A005C0000209E
:1030A0005E00002070B504460F480078A0B10F48BC
:1030B000007888B90E480088844206DB0C480088F6
:1030C00094FBF0F5284600F01DF80948008894FBB1
:1030D000F0F100FB114084B24FF47A7104FB01F06F
:1030E00000F016F870BD0000C6000020B9000020F6
:1030F0005E00002010B5FEF7ADFB10BD10B5FEF769
:10310000C9FB10BD10B504462046FEF7EBFD10BD0F
:103110002DE9F047074600264FF0E020D0F8149044
:103120001148007807FB00F800BFFFF7E3FF4FF0FE
:10313000E020856911E04FF0E0208469AC420CD0BA
:10314000AC4202D2281B064403E0A9EB0400284449
:1031500006442546464500D300E0ECE700BFFFF7F4
:10316000CDFFBDE8F08700005C0000202DE9FC5F8A
:10317000002001900090FFF779F9CC20FFF798F933
:103180004420FFF795F902E0FFF740F9019001981C
:1031900018B90098B0F5FA6FF6DBFFF767F9CC20A5
:1031A000FFF786F9BE20FFF783F9FFF72FF9824674
:1031B000FFF72CF90446A1464FF6FF7000EA0929F3
:1031C00049EA0A09484600F051FB07460022064B2F
:1031D00000F0F4F9054600F0BFF98346C820FFF778
:1031E00061FF5846BDE8FC9F0000304070B50446C2
:1031F0000D46E1B20248FFF787FE204670BD000091
:103200000038014010B54FF4A060FEF781FAFFF7D7
:103210001BFFFEF717FA4FF4E13200210748FFF7D2
:1032200081FEFEF77FFA0A23054A00210548FEF7D2
:1032300087FBFEF75FFB002010BD00000038014057
:10324000E4010020D93400089AB00EE187480368F1
:10325000874802688748016887A0FDF721F8C820E1
:10326000FFF720FF642201A98648FFF74EFD0028E2
:1032700074D001A984A0FDF713F8002083490860E9
:1032800083490860834908608349086001A982482E
:103290000068401C085C3A280CD101A87E490968E6
:1032A000405C3038794908607B480068801C7A4966
:1032B000086015E001A978480068401C095C01A875
:1032C000754A1268805C303800EB800001EB4000EA
:1032D00030386E49086070480068C01C6E4908604C
:1032E00001A96D480068401C085C3A280CD101A86F
:1032F00069490968405C303865490860664800687B
:10330000801C6549086015E001A963480068401CFD
:10331000095C01A8604A1268805C303800EB8000CC
:1033200001EB400030385A4908605B480068C01C17
:103330005949086001A958480068401C085C3A28AF
:103340000DD101A854490968405C303851490860E2
:1033500051480068801C5049086016E03FE001A910
:103360004D480068401C095C01A84B4A1268805C0B
:10337000303800EB800001EB4000303845490860F0
:1033800045480068C01C4449086040480068394905
:1033900008603F480068364908603E480068334985
:1033A0000860FFF783FA3B480068009038480368DC
:1033B00036483AA102683D48FCF77EFF3CA13F48F1
:1033C000FCF77AFF29480368294802682948016800
:1033D0003BA0FCF765FFC820FFF764FE45E0FFF760
:1033E0007BF93A49B0FBF1F201FB12003849086061
:1033F000084600684FF46161B0FBF1F01D490860B8
:10340000334800684FF46161B0FBF1F201FB120038
:103410003C21B0FBF1F0164908602D4800684FF4DC
:103420006161B0FBF1F201FB12003C21B0FBF1F253
:1034300001FB12000D49086008460068254909682B
:10344000884212D00948006822490860074800688D
:10345000009007480368074810A102681348FCF76A
:103460002BFF07A11548FCF727FFEFE650000020CF
:103470004C0000204800002025643A25643A256469
:1034800000000000003801402573000014000020F7
:10349000180000201C0000200C00002054696D65FD
:1034A0003A2025643A25643A25640000E8080020A3
:1034B0005570646174653A2000000000F80800202F
:1034C0007325643A25643A256400000080510100A8
:1034D000540000205800002070B50446002500BFAD
:1034E0000020FEF791F90C490860FCF77FFE0546C5
:1034F00003230A4A00210A48FEF722FA0623094A52
:1035000000210948FEF71CFA0A20FEF795FB284621
:10351000FCF770FE70BD000000000020E4020020F7
:103520006D260008E40800204932000810B5002983
:103530000AD00878002807D005487844FDF7C6FB74
:10354000002801D0002010BD0248784410BD0000C2
:10355000A60600009E06000021F00042A2F1605283
:10356000B2F5801F01F0004328BFD2F17F6C0BD968
:103570005FEA001C43EAC20242EB507018BF70477A
:1035800028BF20F001007047B2F5801FBCBF18466D
:1035900070474FEA410C1CF5001F02D2084600F0AC
:1035A0003EBA70B500F075F900000089FFF7F6BF6C
:1035B0004FF00040A0F58000704700002DE9C041A9
:1035C00030B4DFF8A0C23CEA111418BF3CEA13146F
:1035D00000F0EC8081EA03051CEA111444EAD5747A
:1035E00018BF1CEA131500F0C780A4EB05044FF0C8
:1035F000004545EAC12145EAC32341EA505143EA67
:10360000525304F17F74994204F500344FEAC0200C
:103610004FEAC22208BF904200F09C804FEA136537
:103620000FF24016765D4FEA134506FB05F7C7F12A
:10363000807706FB07F74FEAD737A7FB0368764288
:10364000C8F58038A7FB06CE38BFA8F1010807FBF4
:1036500008E64FF0000EA6FB028CE6FB03CEDCF181
:10366000000CCEF1004E38BFAEF1010EA6FB0C5897
:103670004FF000074FF00005E6FB0E87A1FB08C6E0
:10368000A0FB07CE16EB0E0645F10005E1FB076532
:1036900015F1E04E7EBFA4F580345FEA46066D4129
:1036A00016F1800745F100054FEA17274FEA066635
:1036B00047EA0567A6F1DE46B6F1805F4FEA1525B9
:1036C0001FD9384624F0010C05EBC471BCF1FE6F24
:1036D00001EB0C1102D8F0BCBDE8008124425CBFB4
:1036E00001F5801E9EEAC47F02D4F0BCBDE80081D3
:1036F000244238D4F0BCA1F1C041BDE8004100F043
:1037000016B94FEAD22242EA43524FEAD323A7FB2B
:1037100002864FEAD02040EA415007FB03661EEACA
:103720000E0F4FEAD12105FB026658BFA6EB0056EB
:10373000B6EB00564FEA520E4EEAC37E18EB0E0E61
:1037400056EB530EBDD518EB02085E417F1C55F1B8
:103750000005B6E74FF480154FF000074FF0000664
:103760004FF00008ADE7F0BC4FF0000001F1C041A0
:1037700001F00041BDE8008111EA0C1F0CEA1315AD
:1037800000D00CE013EA0C1F00F025804FF0000081
:10379000F0BC81EA030101F00041BDE80081F0BC0A
:1037A000BDE8004181EA030100F0C1B8F0BCBDE80A
:1037B000004170B500F06DF8097EFC3E00F007B8DE
:1037C00081EA03014FF0000001F00041704781EAF7
:1037D000030100F0ACB8F0BCBDE800414FF00000C0
:1037E00021497047FFFDFBF9F7F5F4F2F0EEEDEB40
:1037F000E9E8E6E4E3E1E0DEDDDBDAD8D7D5D4D3EF
:10380000D1D0CFCDCCCBCAC8C7C6C5C4C2C1C0BF3A
:10381000BEBDBCBBBAB9B8B7B6B5B4B3B2B1B0AF40
:10382000AEADACABAAA9A8A8A7A6A5A4A3A3A2A124
:10383000A09F9F9E9D9C9C9B9A99999897979695DF
:1038400095949393929191908F8F8E8E8D8C8C8B7B
:103850008B8A898988888787868585848483838203
:10386000828181800000FF070000F87FB0FA80F3BA
:1038700010FA03F10AD0C3F11D0303F580634FEA88
:1038800041504FEA035202EBD12170474FF0000044
:1038900070470EF1020E2EF0030E5EF8046B3642F6
:1038A00005D4012A43EB030515F5001F12D80128A2
:1038B00041EB010C1CF5001F0CD80ED14FEAD17C56
:1038C00015F5001F0CEB4C0C0CF1020C08BF4CEB77
:1038D000D37C04E04FF0080C01E04FEAD37C0CEB02
:1038E0004C0526FA05F606F00706B6F1040C06D2DA
:1038F0000EEB860CBDE870404CF0010C6047DFE831
:103900000CF0090B02024FF000414FF00000A1F54E
:10391000002170BD19461046012851EB010418BF63
:10392000D4F5001484BF002001F0004170BD0808E8
:10393000A0F500114FEA31017047000043004FEA43
:10394000D30C4FEA3C0C43401FBF40070CF16051C1
:1039500013F0FE4F70471CF0006F03D100200CF0F5
:10396000004170470CF0004343EA507010B540EA44
:10397000CC0000F00EF800BF000000924FEA0001FA
:10398000FFF7D5BF4FF000414FF00000A1F5002137
:1039900070470EF1020E2EF0030E5EF8044B244227
:1039A00004D44FEA4102B2F17F4F11D84FEA4003ED
:1039B000B3F17F4F0CD80ED14FEAD07CB2F17F4FDC
:1039C0000CEB4C0C0CF1020C08BF4CEBD17C04E06E
:1039D0004FF0080C01E04FEAD17C0CEB4C0324FAC9
:1039E00003F404F00704B4F1040C06D20EEB840CCB
:1039F000BDE810404CF0010C6047DFE80CF0070810
:103A000002024FF00040A0F5800010BD08464200C1
:103A100018BFD2F1807288BF00F0004010BDFF21B6
:103A200041EAD050C0057047FCF7A2BE000001007B
:103A30000200010003000100020001000400010077
:103A40000200010003000100020001000500010066
:103A50000200010003000100020001000400010057
:103A60000200010003000100020001000600010045
:103A70000200010003000100020001000400010037
:103A80000200010003000100020001000500010026
:103A90000200010003000100020001000400010017
:103AA0000200010003000100020001000700010004
:103AB00002000100030001000200010004000100F7
:103AC00002000100030001000200010005000100E6
:103AD00002000100030001000200010004000100D7
:103AE00002000100030001000200010006000100C5
:103AF00002000100030001000200010004000100B7
:103B000002000100030001000200010005000100A5
:103B10000200010003000100020001000400010096
:103B20000200010003000100020001000240000049
:103B3000000000A00000000005400000000000C8D8
:103B4000000000000C4000000000409C000000004D
:103B5000194000000020BCBE0000000034400000FE
:103B6000BFC91B8E00000004B5400000504BCFD0F1
:103B70006607E2CF010000006C4100003E8251AABE
:103B8000DFEEA73401000000D9420000DCB5A0E25E
:103B90003A301F97FFFFFFFFB4450000FD25A0C886
:103BA000E9A3C14FFFFFFFFFFF3F000000000080BF
:103BB00000000000FF3F0000000000800000000047
:103BC000FC3B000800000020E8000000280100087D
:103BD000E43C0008E80000207819000044010008D7
:103BE0001C00000043000000F8FFFFFF0C00000075
:103BF0000E0000000F0000002E000000000000007A
:103C000000000000000000000000000001000000B3
:103C100000000000000000000000000000000000A4
:103C20000000000000000000000000000000000094
:103C300000A24A040000000000000000010203048A
:103C40000607080900000000000000000000000056
:103C50000000000000000000000000000000000064
:103C60001C09002020000000000000003C0900208A
:103C700020000000000000005C090020200000007F
:103C8000000000000000000000000000010203042A
:103C900001020304060708090204060800000000E8
:103CA0000000000000000000000000000000000014
:103CB0000000000000000000000000000000000004
:103CC00000000000000000000000000000000000F4
:103CD00000000000000000000000000000000000E4
:043CE00000000000E0
:04000005080001AD41
:00000001FF
