:020000040800F2
:1000000020160020A90100081D150008151500087C
:1000100019150008BF130008B92C000800000000E3
:10002000000000000000000000000000292500087A
:10003000C313000800000000370200083D26000836
:10004000C3010008C3010008C3010008C301000880
:10005000C3010008C3010008C3010008C301000870
:10006000C3010008C3010008C3010008C301000860
:10007000C3010008C3010008C3010008C301000850
:10008000C3010008C3010008C3010008C301000840
:10009000C3010008C3010008C3010008C301000830
:1000A000C3010008C3010008C3010008C301000820
:1000B000C3010008C3010008C3010008C301000810
:1000C000C3010008C3010008C3010008C301000800
:1000D000C3010008B9260008692700081D28000888
:1000E000C3010008C3010008C301000800F002F8C2
:1000F00000F04AF80AA090E8000C82448344AAF178
:100100000107DA4501D100F03FF8AFF2090EBAE875
:100110000F0013F0010F18BFFB1A43F0010318473B
:10012000D4340000F4340000103A24BF78C878C1F9
:10013000FAD8520724BF30C830C144BF04680C60ED
:10014000704700000023002400250026103A28BF35
:1001500078C1FBD8520728BF30C148BF0B60704739
:10016000662903F07B81732900F0D183002070475A
:100170001FB500F0E3FB04000020002102F0F0FEB8
:10018000E0601FBD10B510BD00F0DCFC1146FFF7AC
:10019000EFFF02F08DFE00F0FAFC03B4FFF7F2FF70
:1001A00003BC00F03DFD00000948804709480047B6
:1001B000FEE7FEE7FEE7FEE7FEE7FEE7FEE7FEE717
:1001C000FEE7FEE704480549054A064B7047000074
:1001D00059260008ED0000082010002020160020FD
:1001E0002012002020120020EFF3108072B670471A
:1001F00080F310887047204C204D25604FF000049C
:1002000084F309881E4C4FF0010525701D4C4FF0FA
:100210008055256062B6FEE730B41A4C4FF0805529
:10022000256030BC704730B4164C4FF080552560C7
:1002300030BC704700BF72B6EFF3098028B1203898
:1002400080E8F00F10490968086000B50F48804742
:100250005DF804EB0E480F490A7802700A480E490F
:100260000A680260106890E8F00F203080F3098877
:100270004EF0040E62B6704720ED00E00000FFFF74
:100280008600002004ED00E08C000020611B0008C7
:100290007B0000207C000020940000200FB4044963
:1002A00010B503AA029800F037FB10BC5DF814FBF0
:1002B000200000200FB41CB5074B06AA7B446946FA
:1002C0000090059800F0F9FA0020694600F008FB5C
:1002D0001CBC5DF814FB00002106000070B504464C
:1002E00085690068C10601D5302600E02026C007D8
:1002F00007D070BDD4E9012130469047206A401CE8
:1003000020626D1EF6D570BD70B504468569007813
:10031000C00707D170BDD4E9012120209047206A91
:10032000401C20626D1EF6D570BD70B50C460546AA
:10033000012A05D02878800600D5EA69002302E06A
:10034000012305E05B1C934202D2E05C0028F9D156
:10035000A869E618C01AA861286A184428622846C5
:10036000FFF7BCFF04E0D5E9012114F8010B904729
:10037000B442F8D32846FFF7C7FF70BD2DE9F04718
:100380004FF0000A89460446C0F820A02046E168E4
:100390008847002876D0252806D0D4E90121904747
:1003A000206A401C2062F1E7E1682046002588476A
:1003B000C4F81CA006460027C4F818A02A2E09D0AD
:1003C000304602F08FFC38B304EB8708303EC8F8A3
:1003D000186019E059F8041B204604EB870291616C
:1003E000E1688847012F064618D1E069002820DA25
:1003F00025F020051DE0D8F8180000EB800006EB82
:1004000040003038C8F818002046E16888470646A2
:1004100002F068FC0028EED1012F0AD02E2E08D160
:100420002046E16888477F1C0646022F45F02005DC
:10043000C4DBA069002803DA404245F00105A06151
:10044000E80701D025F01005B6B1A6F14100192842
:1004500002D8203645F400654A46314620462560DC
:100460004D46FFF77DFE58B1012806D0ED1D25F061
:10047000070000F1080989E704E005F1040985E7B0
:1004800030468AE7206ABDE8F087704770477047BA
:1004900070472DE9FF4F0C461E464FF0FF378BB0DB
:1004A000D2E90001DDF860800A908A46C1F30A555E
:1004B00005B93D46002108464FF00000BAF1000F93
:1004C00000F4400005DA00EB80004FF4400101EA3F
:1004D00050004FEA9059B9F1010F00DDB9460A9872
:1004E00050EA4A000ED044F61050A5F2FF354543BD
:1004F0002F14B8F1000F1ED07542291E1EDDC9F160
:1005000000021CE0B8F1010F4FF0000001D03021D3
:1005100003E0F24305E02154401CB042FBDB3046CF
:100520000022002121540B99C1F80880C1E9002064
:100530000FB0BDE8F08FBD1B6D1CDEE74A4600DA48
:10054000694206A800F084FA06AB93E8070003AB03
:1005500083E8070050460A9900F069FB8DE8070020
:10056000A0F500501F3800900398002D0ADD42F2DC
:100570001F014A460844002303A90390684600F07F
:10058000D2FD09E0A0F500504A461F38002303A918
:100590000390684600F0DCFD8DE807000004000CC5
:1005A00003D04FF0FF30410800E01046B8F1000FD3
:1005B00003D00022009215461EE0751E05D400F0FF
:1005C000C1F9303262556D1EF9D5B3460122084398
:1005D00002D000227F1C04E02078302801D10022C4
:1005E0007F1E002A099784D01DE0112D07DA00F044
:1005F000A9F9303262556D1C50EA0102F5D1084369
:1006000002D00098C8B10EE00021681E05E0235C0E
:10061000625C63542254401E491C8142F7DBAB46A6
:10062000A81B401E0990002004F80B000B98099AA3
:10063000C0F80880C0E9002B7AE711264FF00008C7
:1006400057E72DE9F04F88460446D21D22F00701F6
:1006500091B0D1E90001CDE90A0102F02FFB024679
:100660000B98C00F01D02D2007E02068810701D52D
:100670002B2002E0202101EAC000032A099001D0CA
:10068000072A05DB03464146204600F0A1F90BE1AD
:100690002078800601D5E06900E00620B8F1650FFA
:1006A000814606D0B8F1660F18D0B8F1670F70D147
:1006B00031E00020B9F1110F009001DB112301E0BE
:1006C00009F101030AAA01A90CA8FFF7E2FEDDE97E
:1006D0000C70002609F10105834647E001204B46D6
:1006E00000904FF000470AAA01A90CA8FFF7D1FE1D
:1006F000DDE90DB00C995D46002610B909F1010045
:100700000D18B9EB050003D4C0F1FF3609F101055E
:10071000A5EB09002BE0B9F1010F01DA4FF0010957
:100720000020B9F1110F0090484601DD112300E0CF
:1007300003460AAA01A90CA8FFF7ABFEDDE90C707D
:100740004D4600268346207800070AD4AB4500DAE0
:100750005D4601A8012D04DD411911F8011C302965
:1007600007D04F4502DA17F1040F04DA0120824660
:100770000FE06D1EEEE7002F02DCED1B3E4403E0B0
:10078000781CA84200DD7D1CB81B00F1010A4FF067
:1007900000472078000703D4AA4501DB4FF0FF3A59
:1007A0000021B7F1004F0DF143088DF8431024D01C
:1007B00002202B23002F01DA7F422D230A21021E63
:1007C000A0F1010000DC5FB197FBF1FC97FBF1F2B7
:1007D00001FB1C7C17460CF1300C08F801CDEEE74C
:1007E000A8F1010003702188090501D5452100E029
:1007F0006521A0F1010800F8011C09980FA9A1EBDF
:100800000807FF1D00B10120411901EBEA70A16941
:100810003844081A401EA0612078C00602D4204641
:10082000FFF75CFD099828B1D4E901219047206ABF
:10083000401C20622078C00622D52046FFF74EFDDE
:100840001EE0002E04DBB34502DD01A8805D00E060
:100850003020D4E901219047206A401C2062761C98
:10086000AAF101005FEA000A0AD100F067F8C06847
:100870000168405CD4E901219047206A401C206255
:10088000281EA5F10105DCDC07E0D4E9012118F8F8
:10089000010B9047206A401C2062381EA7F1010717
:1008A000F3DC2046FFF730FD032011B041E60000E5
:1008B00001694A1C02610878704700B58FB0CDE924
:1008C00001310021059105497944CDE90310114614
:1008D0006846FFF753FD0FB000BD0000E5FFFFFFC6
:1008E0000A6802F8010B0A60704710B5436913B13A
:1008F000AFF3008001E0FFF718FD012010BD127872
:1009000000F124010A7000224A700122EDE711680B
:100910004FF0FF32E9E70000074B70B50D467B440E
:10092000FFF7CBFF0446284600F004F910B14FF062
:10093000FF3070BD204670BD77250000004870472D
:10094000DC0F002030B5B0F10A024FEA900E71F1D1
:1009500000034EEA817EB0EB0E0061EB91014FEA9D
:10096000101E4EEA017E10EB0E0041EB11114FEA12
:10097000102E4EEA016E10EB0E0041EB11214FEAF2
:10098000104E4EEA014E10EB0E0041EB11414018A3
:1009900041F100014FEAD00040EA41704FEAD10135
:1009A00010EB80054FEA810444EA907444EB0104A3
:1009B0006D1944EB0404521BA3414FF0000348BFE0
:1009C0000A3200D530BD401C41F1000130BD0000AD
:1009D0002DE9F0411F46044603260168072A01F469
:1009E000006004DB08B116A505E016A503E008B118
:1009F00015A500E015A521F010002060A069C01E1B
:100A0000A0610FB1401EA0612046FFF767FC4FB107
:100A1000D4E9012138469047206A401C2062C01C5E
:100A2000206206E0206AFAE7D4E9012115F8010BFB
:100A30009047761EF8D22046FFF766FCBDE8F081AD
:100A40004E414E006E616E00494E4600696E660072
:100A50002DE9F047814616468AB0354878440DC8DE
:100A60008DE80D0032487844801C03AC0DC884E842
:100A70000D0041F69B300844372190FBF1F290FBCA
:100A8000F1F5A5F1800501FB12041B3C02D564427F
:100A9000012000E00020DFF898A080460027FA44FB
:100AA000AAF1BE0A0EE0E0070AD03246684607EB1C
:100AB000470101230AEB810100F04AFB8DE80700A2
:100AC00064107F1C002CEED1194F7F44AE3F19E01B
:100AD000E80715D007EB04100DF1180A90E80E0096
:100AE0008AE80E00C068F04201D198190890324699
:100AF000012306A903A800F02BFB03AB83E8070042
:100B00006D10641C002DE3D14FF00103324669469D
:100B1000B8F1000F03A802D000F005FB01E000F0DF
:100B200017FBC9E90001C9F808200AB0BDE8F08741
:100B30007C2B0000007B00F080007047004870476D
:100B4000BC0F00207546FFF7F9FFAE460500694669
:100B5000534620F00700854618B020B5FFF732FB5A
:100B6000BDE820404FF000064FF000074FF00008AE
:100B70004FF0000B21F00701AC46ACE8C009ACE82F
:100B8000C009ACE8C009ACE8C0098D46704710B593
:100B90000446AFF300802046BDE81040FFF7FDBAE1
:100BA0004FF0013C50F8042B51F8043B9A4221D1FC
:100BB000A2EB0C03934313EACC1317D150F8042B88
:100BC00051F8043B9A4215D1A2EB0C03934313EA6C
:100BD000CC130BD150F8042B51F8043B9A4209D1A5
:100BE000A2EB0C03934313EACC13DBD04FF00000CD
:100BF000704700BFD01A01BAB1FA81F101F01801B3
:100C000022FA01F0CB40C1F12001DBB2C0B2C01A20
:100C10002CFA01F3D11A914311EAC311E6D17047BE
:100C200001491820ABBEFEE72600020070475FEACC
:100C3000400C08BF91F0000F4FEA8C234FEAC1220D
:100C400043EA51514FEA1C5018BF00F5F0404FEAFB
:100C5000300018BF41F000415FEA6C5C00F0298071
:100C6000BCF1FF3F08BF40F080407047130C06BF47
:100C700012044FF0100C4FF0000C130E04BF1202C0
:100C80000CF1080C130F04BF12010CF1040C930FAC
:100C900004BF92000CF1020CD30F04BF52000CF100
:100CA000010C11464FF00002A0F11F00A0EB0C0058
:100CB000704711F0004F08BF704731F000413FF41A
:100CC000D5AF0B0C06BF09044FF0100C4FF0000C11
:100CD0000B0E04BF09020CF1080C0B0F04BF090135
:100CE0000CF1040C8B0F04BF89000CF1020CCB0F2C
:100CF00004BF49000CF1010CCCF12003A0EB0C0067
:100D000022FA03F302FA0CF241EA030100F10100B6
:100D1000704720F07F4C80EA030023F07F47ACEB64
:100D2000070303F57C5300F0004003F1FF032DE9B6
:100D300080494FEA154B09B44FEA144325EA0B4E9C
:100D400024EA03480FF2042606EB132749083E78ED
:100D50005FEA320203FB0667C7F5000707FB06F6EA
:100D60004FEA54374FEAD64606F1020607FB066CF7
:100D7000CCF1005C4FEA1C472CEA074C07FB06F459
:100D80000CFB06F504EB15464FEA961634BF00201F
:100D90004FF000404FEAD13706FB07FC4FEA1C4CEE
:100DA0000CFB0BF7D21B03FB0CF761EB07010CFBF1
:100DB0000EF7B0EB074072EB17420CFB08F734BF9D
:100DC000A2EB0742B2EB074261EB17414FEA0C443A
:100DD0004FEA910706FB07FC4FEA1C4C0CFB0BF794
:100DE000B0EBC74072EB573203FB0CF734BFA2EBFA
:100DF000C742B2EBC74261EB57310CFB0EF7B0EBC9
:100E0000C70072EB57720CFB08F734BFA2EBC702A6
:100E1000B2EBC70261EB5771039F4FEA816141EA70
:100E2000921104EBCC044FEAD1374FEA826206FB01
:100E300007FC42EA90124FEA80604FEA1C4C0CFB20
:100E40000BF7D21B03FB0CF761EB07010CFB0EF752
:100E5000B0EB074072EB17420CFB08F734BFA2EB74
:100E60000742B2EB074261EB17414FEA8C554FEA5C
:100E7000910704EB9C2406FB07FC4FEA1C4C0CFB7F
:100E80000BF7B0EBC74072EB573203FB0CF734BFE4
:100E9000A2EBC742B2EBC74261EB57310CFB0EF736
:100EA000B0EBC70072EB57720CFB08F734BFA2EB34
:100EB000C702B2EBC70261EB577115EB4C254FEA45
:100EC000816141EA92114FEA82624FEAD13742EAE8
:100ED000901206FB07FC44F100044FEA80604FEAE1
:100EE0001C4C0CFB0BF7D21B03FB0CF761EB07014F
:100EF0000CFB0EF7B0EB074072EB17420CFB08F748
:100F000034BFA2EB0742B2EB074261EB174115EB8E
:100F10001C154FEA813141EA92414FEA823242EA9E
:100F200090424FEA80304FEA0C7644F1000448EAE0
:100F300003434EEA0B484FF0000EB2EB080C71EB86
:100F4000030724BF624639464EEB0E0E4FF0000BEE
:100F50000018524149414BEB0B0BB2EB080C71EB03
:100F600003077BF1000B24BF624639464EEB0E0EA1
:100F70004FF0000B0018524149414BEB0B0BB2EB09
:100F8000080C71EB03077BF1000B24BF6246394666
:100F90004EEB0E0E51EA020718BF46F0010616EBA3
:100FA0000E7655F1000254F1000103D5BDE8890128
:100FB000BDE80088BDE88901BDE80048B619524186
:100FC00041EB0101A3F10103704780807F7E7D7CAE
:100FD0007B7A7978777676757473727171706F6ECB
:100FE0006E6D6C6C6B6A6A69686867666665646476
:100FF000636362616160605F5F5E5E5D5D5C5C5B00
:101000005B5A5A595958585757565655555554546E
:10101000535352525251515050504F4F4F4E4E4DCC
:101020004D4D4C4C4C4B4B4B4A4A4A494949484818
:101030004847474747464646454545444444444358
:1010400043434342424242414141002B9C4630D4FB
:1010500077002BD01CB54FEA370703B44FF01000D0
:101060004FF01001BAF1000F06D0BCF1000FDCBF49
:1010700040F0080040F008014FF000000FBCBDE850
:1010800010400BF1010BBBF1010F08BF5FEA17071E
:1010900022BF12F1010211F101014FF0004143F1B1
:1010A000000300F0004043EA00007047F9D35708FE
:1010B000D0E746EA064613F1400F4FEA16461FDD19
:1010C00013F1200FDFBF16430A46002120335B4295
:1010D000BED0C3F1200746EA064602FA07F74FEAF8
:1010E000164646EA0706C3F1200722FA03F201FA80
:1010F00007F721FA03F14FF0000342EA0702A7E7DE
:1011000046EA020646EA06464FEA164646EA01065F
:10111000BCBF46EA0646360C4FF000034FF0000213
:101120004FF0000194E72DE9804C9A46934670B445
:1011300091E8380007C831EA400C48BF34EA430C54
:1011400003D5FFF7E6FDFFF780FFF0BCBDE8008C9C
:101150002DE9804C9A46934670B491E8380007C850
:1011600010F0804F08BF13F0804F03D100F005F856
:10117000FFF76BFFF0BCBDE8008C20F07F4780EAF2
:10118000030023F07F4C07EB0C03A3F57C5300F026
:101190000040A3F1FE0392F0000F00F0B38095F041
:1011A000000F00F077802DE901494FEA11404FEA26
:1011B000144621EA004800FB06FC24EA064708FB27
:1011C00006F607FB08F800FB07F718EB06484CEBA0
:1011D000164C4FEA124B18EB07484FEA15464CEBFA
:1011E000174022EA0B4E0BFB06FC25EA06470EFBD6
:1011F00006F607FB0EFE0BFB07F71EEB064E4CEB4D
:10120000164C4FF000061EEB074E4CEB174B18EB3D
:101210000B0840F1000018EB0E0B58EB000840F1F2
:1012200000008F1A4FF000013CBFC943661B14BF7A
:10123000B5EB040C00213CBFC943F61B4FEA174431
:101240004EEA8E0E27EA04454FEA1C4704FB07626C
:101250002CEA074C05FB07F70CFB05F604FB0CFC1E
:1012600016EB074642EB174216EB0C4642EB1C42CC
:101270001BEB060658EB0202414146EA9E0601D5E9
:10128000BDE80189B619524141EB0101A3F1010307
:10129000BDE801894FEA14454FEA114724EA0546A3
:1012A00021EA074C05FB07F406FB07F70CFB06F1E8
:1012B00005FB0CFC11EB074144EB17444FEA1247C6
:1012C00011EB0C4144EB1C4422EA074C05FB07F2EE
:1012D00006FB07F70CFB06F605FB0CFC16EB0746B6
:1012E00042EB174216EB0C4642EB1C456A1854F1D0
:1012F000000148BF7047B619524141EB0101A3F10B
:101300000103704795F0000F37D04FEA11424FEAC2
:10131000144721EA024624EA074C02FB07F106FBC8
:1013200007F70CFB06F402FB0CFC14EB074441EB43
:1013300017414FEA154714EB0C4441EB1C4125EAD9
:10134000074C02FB07F506FB07F70CFB06F602FB52
:101350000CFC16EB074645EB174516EB0C4645EB28
:101360001C42121951F1000148BF7047B619524191
:1013700041EB0101A3F1010370474FEA14454FEA25
:10138000114724EA054621EA074C05FB07F106FB55
:1013900007F70CFB06F24FF0000605FB0CFC12EB06
:1013A000074241EB174112EB0C4251EB1C4148BF85
:1013B0007047921841EB0101A3F10103704700BF90
:1013C000FEE770472DE9F041024600250026002087
:1013D00000230024002791F803C00CF00F0591F8BA
:1013E00003C00CF0100CBCF1000F03D091F802C048
:1013F0004CEA050591F800C0BCF1000F31D014682B
:1014000000202BE04FF0010C0CFA00F3B1F800C003
:101410000CEA03069E4220D183004FF00F0C0CFA19
:1014200003F7BC4305FA03FC4CEA040491F803C03B
:10143000BCF1280F06D14FF0010C0CFA00FCC2F8E9
:1014400014C00AE091F803C0BCF1480F05D14FF079
:10145000010C0CFA00FCC2F810C0401C0828D1D3C3
:101460001460B1F800C0BCF1FF0F34DD54680020F7
:101470002EE000F1080C4FF0010808FA0CF3B1F867
:1014800000C00CEA03069E4221D183004FF00F0CEE
:101490000CFA03F7BC4305FA03FC4CEA040491F888
:1014A00003C0BCF1280F05D100F1080C08FA0CF8B4
:1014B000C2F8148091F803C0BCF1480F07D100F1C5
:1014C000080C4FF0010808FA0CF8C2F81080401C14
:1014D0000828CED35460BDE8F0810246002093680E
:1014E0000B400BB1012000E00020704741617047C4
:1014F00001617047F8B506460C461546ADF8004048
:101500008DF8035003208DF8020069463046FFF73E
:1015100059FFF8BD00BFFEE700BFFEE770470000BF
:1015200070B5002100230F22C47804B3154C246841
:1015300004F4E064C4F5E064210AC1F10403CA4084
:10154000447804FA03F184781440214309010E4CD5
:101550000678A155047804F01F050124AC400578F5
:101560006D11AD0005F1E025C5F8004109E00478F2
:1015700004F01F050124AC40044D0678761145F8AF
:10158000264070BD0CED00E000E400E080E100E0EA
:1015900002490143024A1160704700000000FA0549
:1015A0000CED00E010B500F013F800F0F3FB00F0D4
:1015B0001BFC00F03BFC00F0C3FB00F095FB00F0CF
:1015C000CFFC00F073FC00F099FC00F002F810BDB5
:1015D0007047704706480078012808D10548007810
:1015E000FF2804D203480078401C02490870704765
:1015F000860000207900002010B500241A480078E9
:10160000012830D1FEF7F0FD04461848007820B1DB
:1016100016480078401E1549087014480078F8B93B
:1016200013480078E0B900F0FDFC1248124909782F
:1016300050F82100114908600F48007810490978D6
:1016400088420DD00D480068806B401C0B4909682A
:1016500088630C480068401C0A490860FEF7E3FDF7
:101660002046FEF7C5FD10BD860000207900002051
:101670007A000020540A00207C0000209400002002
:101680007B0000206000002070B5054600260F4852
:10169000007808B1002070BDFEF7A6FD06460C4894
:1016A0000468006820B10A4800684068084908607A
:1016B0003046FEF79DFD3CB10120207000202081C6
:1016C0006560204600F001FB2046E4E77900002039
:1016D0006400002010B500240B480078012811D1C7
:1016E000FEF782FD04460948007840B908480078B2
:1016F000FF2804D206480078401C0549087020469F
:10170000FEF776FD10BD0000860000207900002065
:101710007A00002010B5002413480078012821D158
:10172000FEF762FD044611480078C0B10F4800780A
:10173000401E0E4908700846007860B90C480078D1
:1017400028B92046FEF754FD00F032FC0AE020469E
:10175000FEF74EFD06E02046FEF74AFD02E0204679
:10176000FEF746FD10BD0000860000207A00002034
:101770007900002010B50B48007890B900F052FCB9
:10178000094800780949087009480749097850F85C
:101790002100084908600846006807490860FEF70C
:1017A0002AFD10BD860000207C0000207B00002068
:1017B000540A0020940000208C0000207047000094
:1017C0002DE9FE4F06460F4690461C464FF0000995
:1017D000FEF70AFD81461F48007828B14846FEF70B
:1017E00007FD3C20BDE8FE8F1B4850F8240060BB7D
:1017F0000120194941F824004846FEF7F9FC00236E
:1018000042463946304600F009F9824600200090F1
:1018100001900346024651460290204600F018FC13
:10182000054635B90D48007801280CD100F0C0FB01
:1018300009E0FEF7D9FC81460020074941F8240061
:101840004846FEF7D5FC2846CCE74846FEF7D0FCD4
:101850002820C7E779000020540A002086000020D5
:101860002DE9F04F85B081468A4693461C46DDE956
:101870000F78129D00200390FEF7B6FC03902348DA
:10188000007830B10398FEF7B3FC3C2005B0BDE80A
:10189000F08F1F4850F8240088BB01201C4941F8F4
:1018A00024000398FEF7A4FC2A464146384600F07F
:1018B000DFFC2B465A465146484600F0AFF80490EC
:1018C0001198CDE9008002953A4620460E9B049976
:1018D00000F0BEFB064636B90E48007801280CD150
:1018E00000F066FB09E0FEF77FFC0390002008494A
:1018F00041F824000398FEF77BFC3046C6E7FFE77B
:101900000398FEF775FC2820C0E70000790000204E
:10191000540A002086000020704770472DE9F041EE
:1019200006460F4614464FF000081548007818B1D7
:1019300012202070BDE8F081FEF756FC8046FF2E95
:1019400003D11048006890F832600F4850F82650D4
:101950002DB94046FEF74CFC43202070EAE7012DEC
:1019600005D14046FEF744FC43202070E2E7EF64D7
:101970004046FEF73DFC0020207000BFDAE7000083
:10198000790000208C000020540A002070470000DD
:101990002DE9F04707460D464FF0000A0020286069
:1019A0006860FEF721FC8246FF2F03D119480068CA
:1019B00090F83270184850F827402CB95046FEF77E
:1019C00017FC4320BDE8F087012C04D15046FEF7F8
:1019D0000FFC4320F6E7207C00F0010020B95046C0
:1019E000FEF706FC4520EDE70026D4F80C90D4F86D
:1019F00008805046FEF7FCFB00E0761C58F8041BFC
:101A00000029FAD0B0002860A9EB060080006860C9
:101A10000020D7E78C000020540A002070B504464F
:101A200010464FF080750560051F28462C606FF04A
:101A30000106051F28462E604FF01236051F284666
:101A40002E604FF00336051F28462E604FF00236F9
:101A5000051F28462E607610051F28462E60051F9C
:101A6000284629604FF01136051F28462E604FF09A
:101A70001036051F28462E604FF00936051F2846F0
:101A80002E604FF00836051F28462E604FF00736AF
:101A9000051F28462E604FF00636051F28462E608B
:101AA0004FF00536051F28462E604FF00436051FFF
:101AB00028462E6070BD00002DE9F04105464FF02C
:101AC0000008FEF791FB8046FF2D05D120480068F5
:101AD00090F83250012608E01D48006890F8320066
:101AE000A84201D1012600E000261A4850F82540FE
:101AF0002CB94046FEF77CFB4820BDE8F081012C64
:101B000004D14046FEF774FB4320F6E794F83470A6
:101B10001148C05D94F8351088430F49C8550846F0
:101B2000C05D30B994F836100C48007888430B49F2
:101B3000087094F8300040F0080084F83000404607
:101B4000FEF756FB012E01D100F032FA0020D4E757
:101B50008C000020540A00207E0000207D00002020
:101B60007047000070B5054600261748007800B1A0
:101B700070BD1648007800B1FAE71DB3FEF734FBDC
:101B800006461348006890F834401248005D10493A
:101B9000096891F8351088430E4908550846005DDC
:101BA00040B90B48006890F836100B48007888431D
:101BB0000949087006480068C5623046FEF718FB00
:101BC00000F0F6F900BFD3E7790000207A0000208A
:101BD0008C0000207E0000207D00002070B50026D3
:101BE00000F072F8FEF700FB064631480068401C22
:101BF0002F4908603046FEF7FBFA2E48007801288E
:101C000053D12D48007820B1012804D0022809D1F1
:101C100003E001250BE0002509E00125012026490C
:101C2000087004E0012500202349087000BF00BFB0
:101C300005B970BD2148046833E0FEF7D5FA0646C1
:101C4000E06A50B3E06A401EE062E06A28BB94F8A4
:101C5000300000F0370040B114F8300F00F0C80039
:101C6000207001206070303C02E0002084F83100D8
:101C700094F8300000F0080078B93434A0781049A6
:101C8000097808430E49087020780E49085C61788D
:101C9000084314F834190B4A505464693046FEF76F
:101CA000A7FA94F832003F28C7D100BFC1E700006F
:101CB000A4000020860000209C0000209800002046
:101CC0007D0000207E0000207047014600228A72BD
:101CD000002005E0002301F10B021354421CD0B296
:101CE0000828F7D3704700002DE9F0415021114832
:101CF00000F02CF900250DE0681C86B20D4800EBC1
:101D0000051400EB06170020207067600AA0E06051
:101D1000681C85B2042DEFD3064800EB05140020A3
:101D20002070606004A0E060024804490860BDE8DB
:101D3000F0810000040600203F0000006800002041
:101D400070B5C821114800F001F900230FE0581CBC
:101D500085B203EB83000D4901EB800405EB8500A0
:101D600001EB8006002020706660581C83B2092BAE
:101D7000EDD303EB8300054901EB800400202070C4
:101D8000606008460249086070BD00003C05002004
:101D90006400002000200A4908600A4908700A49C6
:101DA00008700A4908700A4908700A4908600A4917
:101DB00008600A4908600A4908600A4908707047C3
:101DC000A4000020790000207A0000208700002075
:101DD00086000020600000208800002074000020A1
:101DE000700000207800002000210A4A11700020B5
:101DF00004E00021084A1154411CC8B20828F8D355
:101E00000021064A1170064A1170064A1160064AFE
:101E1000116070477D0000207E0000207B000020C4
:101E20007C000020940000208C00002070B54FF44E
:101E30007C71194800F08AF84FF48071174800F05F
:101E400085F8002413E0601CC5B2C4EBC40000EBAD
:101E50004000114901EB8003C5EBC50000EB4000D9
:101E600001EB80065E610EA0D864601CC4B20B2C2E
:101E7000E9D3C4EBC40000EB4000074901EB800349
:101E80000020586106A0D864002006490860024876
:101E90000549086070BD0000540B0020540A002062
:101EA0003F000000980000209000002000B587B09F
:101EB0000320002180220A4BCDE90132CDE9031035
:101EC0004FF6FF703F23074A00900748FFF7C8FC12
:101ED00006AA06A13F20FFF721FD07B000BD0000C4
:101EE00054080020500A00208521000875432F4F18
:101EF000532D49492049646C6500000000B587B046
:101F00000320002180220A4BCDE90132CDE90310E4
:101F10004FF6FE703E23074A00900748FFF7A0FCEB
:101F200006AA06A13E20FFF7F9FC07B000BD00009D
:101F30005406002050080020AD21000875432F4FA3
:101F4000532D4949205374617400000004E00022BD
:101F500000F8012B4A1E91B20029F8D17047000009
:101F60002DE9F04178211048FFF7F0FF00240DE043
:101F7000601C86B204EB44000B4901EBC00506EB84
:101F8000460001EBC0072F60601C84B2042CEFD325
:101F900004EB4400044901EBC0050020286008461A
:101FA00002490860BDE8F081440F0020A000002035
:101FB00010B50024FEF718F9044613480078F8B964
:101FC00012480078E0B900F02DF81148114909785D
:101FD00050F82100104908600E4800780F49097830
:101FE00088420DD00C480068806B401C0A49096883
:101FF00088630B480068401C09490860FEF70CF92B
:102000002046FEF7F5F810BD790000207A00002088
:10201000540A00207C000020940000207B00002057
:10202000600000200649074A1278885C0649095C6E
:10203000034A515C01EBC001044A11707047000073
:10204000603400087D0000207E0000207C0000201D
:102050002DE9F84F05460F4690469946DDE90AAB53
:1020600000200090FEF7C0F800903F480468002C64
:1020700074D0183454F8040C3B4908600098FEF7FB
:10208000B7F844F8187CA576002020766076606169
:1020900044F814BC44F80CAC44F8108C0C9824F8A8
:1020A000080C24F8069C0020E077E810207705F063
:1020B0000700E076217F01208840A077E17E0120A3
:1020C0008840607700206060E060A0602062A062CD
:1020D0006062E062206325A06063183C002606E091
:1020E000002104F1500040F82610701CC6B2002EEA
:1020F000F6D02046FFF762FB2046FFF70DFCFEF707
:1021000073F800901A4840F825401A48006860614A
:102110000020A0611748006810B11648006884616B
:10212000144804603434A0781349097808431249EC
:10213000087020781149085C6178084314F8341954
:102140000E4A50540E480078401C0D490870009803
:10215000FEF74EF80020BDE8F88FFFE70098FEF785
:1021600047F84220F7E70000900000203F00000001
:10217000540A0020980000207D0000207E000020EE
:1021800087000020002400BF00BFFEF72DF80446A2
:1021900005480068401C044908602046FEF728F8FE
:1021A000FFF7BBFBF1E7000088000020002400BF20
:1021B00002E02820FFF7D6FC194800780028F8D064
:1021C000184800686421B0FBF1F016490860084621
:1021D000006828B9002014490870FF20FFF76CFC44
:1021E00000BFFEF701F80446104800681049086077
:1021F00000200E4908602046FDF7FAFF0C480068F1
:1022000008490968B0FBF1F0C0F1640006490870A4
:10221000FFF7BCFB00F00EF81420FFF7A3FCE0E78B
:1022200078000020700000206C0000208800002052
:10223000740000207CB5002514E069462846FFF7AD
:10224000A7FB064666B9094850F8254044B1012C61
:1022500006D0D4E9020100EB810060640198A0641B
:10226000681CC5B23F2DE8D97CBD0000540A00208F
:1022700002F0010343B102F002032BB102E0491E58
:10228000002308C00029FAD17047000070B500256E
:10229000002424E014224FF400711348FFF72AF9B8
:1022A0004FF400711048FFF721F9022000F086FD7D
:1022B0000422D1010C48FFF71DF9082000F07EFD33
:1022C0004FF400710848FFF708F918B10120A04049
:1022D0002843C5B2782000F071FD601CC4B2082C00
:1022E000D8DB284670BD0000000C014010B5142258
:1022F0004FF400710D48FFF7FDF84FF400710B48E3
:10230000FFF7F4F84FF4FA7000F058FD0422D10101
:102310000648FFF7EFF84FF4FA7000F04FFD042283
:10232000D1010248FFF7E6F810BD0000000C0140A3
:1023300070B50446002529E014224FF400711548B9
:10234000FFF7D8F84FF400711248FFF7CFF80220DA
:1023500000F034FD04F0010028B14FF400710D4885
:10236000FFF7C6F804E04FF400710A48FFF7BEF823
:1023700064103C2000F022FD0422D1010548FFF743
:10238000B9F8022000F01AFD681CC5B2082DD3DB95
:1023900070BD0000000C014029B1064AD269024319
:1023A000044BDA6104E0034AD2698243014BDA61EB
:1023B000704700000010024029B1064A126902432A
:1023C000044B1A6104E0034A12698243014B1A610B
:1023D000704700000010024029B1064A926902438A
:1023E000044B9A6104E0034A92698243014B9A616B
:1023F000704700000010024029B1064AD26802432B
:10240000044BDA6004E0034AD2688243014BDA608D
:10241000704700000010024030B500210022002467
:1024200000232D4D6D6805F00C0121B1042905D064
:10243000082923D105E0294D056022E0274D0560DC
:102440001FE0254D6D6805F47012234D6D6805F48D
:102450008034022505EB92421CB9214D554305609D
:102460000BE01D4D6D6805F400351DB11C4D554345
:10247000056002E0194D5543056002E0174D056007
:1024800000BF00BF144D6D6805F0F0010909154D3E
:102490006B5C0568DD4045600F4D6D6805F4E061DB
:1024A000090A104D6B5C4568DD4085600A4D6D681A
:1024B00005F46051C90A0B4D6B5C4568DD40C56091
:1024C000054D6D6805F44041890B074D6B5CC5688F
:1024D000B5FBF3F5056130BD0010024000127A0033
:1024E00000093D004C0000205C00002012E000F0DC
:1024F00093FC094908600846006800F039FF04466B
:1025000022460B4605A10748FDF7D4FE4FF4FA60BA
:1025100000F01EFCEBE700000400002025332E3203
:1025200066000000C8040020704710B500F002F8F3
:1025300010BD00000CB500200190009033480068E9
:1025400040F480303149086000BF3048006800F432
:10255000003000900198401C0190009818B9019833
:10256000B0F5A06FF1D12948006800F4003010B137
:102570000120009001E0002000900098012843D144
:102580002348006840F010002149086008460068B0
:1025900020F0030008600846006840F00200086070
:1025A0001A4840681949486008464068486008462B
:1025B000406840F4806048600846406820F47C1021
:1025C00048600846406840F4E810486008460068E3
:1025D00040F08070086000BF0C48006800F0007098
:1025E0000028F9D00948406820F0030007494860F6
:1025F0000846406840F00200486000BF0348406859
:1026000000F00C000828F9D10CBD000000100240B9
:1026100000200240042808D14FF0E021096941F070
:1026200004014FF0E022116107E04FF0E021096959
:1026300021F004014FF0E0221161704710B5054808
:102640000078012805D1FEF7C5FFFFF7C7FAFEF7AE
:10265000D3FF10BD8600002010B51348006840F07D
:1026600001001149086008464068104908400E49B9
:102670004860084600680E4908400B490860084653
:10268000006820F4802008600846406820F4FE00BE
:1026900048604FF41F008860FFF747FF4FF000606D
:1026A0000449086010BD0000001002400000FFF85F
:1026B000FFFFF6FE08ED00E010B540F22551064898
:1026C00000F091F930B10448001D0088C1B2034800
:1026D00000F0C8F910BD00000038014024000020BF
:1026E00010B50446E4B901210520FFF775FE01216C
:1026F0008803FFF771FE4FF4007018490880182016
:10270000C870032088701648FEF75CFE4FF48060A6
:10271000124908800420C8701148FEF753FE1BE0E0
:10272000012C19D101210820FFF756FE0121880351
:10273000FFF752FE4020094908801820C870032086
:1027400088700848FEF73EFE802004490880042077
:10275000C8700448FEF736FE10BD00004800002097
:1027600000080140000C014010B540F22551064818
:1027700000F039F930B10448001D0088C1B20348A7
:1027800000F070F910BD000000440040300000204F
:1027900010B5044601214804FFF7FEFD022C1AD1B2
:1027A00001210420FFF718FE01214804FFF7F4FD82
:1027B0000420174908801820C87003208870154825
:1027C000FEF700FE0820124908800420C870114856
:1027D000FEF7F8FD1BE0032C19D101212020FFF7A3
:1027E000FBFD01214804FFF7D7FD202008490880A0
:1027F0001820C870032088700748FEF7E3FD4020CA
:10280000034908800420C8700348FEF7DBFD10BDB3
:1028100048000020000801400014014010B540F2BB
:102820002551064800F0DFF830B10448001D00884B
:10283000C1B2034800F016F910BD00000048004086
:102840003C00002010B5044601218804FFF7A4FDD8
:10285000042C1AD101210820FFF7BEFD01218804B4
:10286000FFF7BAFD2002284908801820C87003200D
:1028700088702648FEF7A6FD6002234908800420E0
:10288000C8702248FEF79EFD3CE0052C1CD10121BA
:102890001020FFF7A1FD01218804FFF79DFD4FF4F3
:1028A0008060194908801820C87003208870184873
:1028B000FEF788FD4FF40060134908800420C870BB
:1028C0001348FEF77FFD1DE0062C1BD101212020BF
:1028D000FFF782FD01218804FFF77EFD4FF4807031
:1028E000094908801820C870032088700948FEF73D
:1028F00069FD4FF40070044908800420C870054841
:10290000FEF760FD10BD000048000020000C0140F3
:10291000001001400014014021B1828942F40052AC
:10292000828104E082894DF6FF731A4082817047EC
:1029300010B504462048844209D101218803FFF7DD
:102940005BFD00214FF48040FFF756FD32E01B484D
:10295000844209D101214804FFF72EFD00214FF4E4
:102960000030FFF729FD25E01548844209D10121F7
:102970008804FFF721FD00214FF48020FFF71CFDA4
:1029800018E01048844209D10121C804FFF714FD62
:1029900000214FF40020FFF70FFD0BE00A488442AE
:1029A00008D101210805FFF707FD00214FF4801031
:1029B000FFF702FD10BD0000003801400044004058
:1029C00000480040004C00400050004002460020FB
:1029D000B1F5007F00D100BF13880B400BB101207F
:1029E00000E00020704770B5024600240023002557
:1029F000002040F66A16B14200D100BFC1F3421573
:102A000001F01F03012606FA03F3012D02D1968976
:102A1000334006E0022D02D1168A334001E0968A47
:102A200033400C12012606FA04F41688344013B120
:102A30000CB1012000E0002070BD00000146064AF4
:102A4000914200D10020054A914200D10120044A60
:102A5000914200D1022070470038014000440040FC
:102A60000048004010B5C28883889A420FDA028974
:102A700083889A4201D1002202814AB20489036804
:102A80001A550289521C0281C288521CC28010BD94
:102A9000F0B50346002400260025002040F66A1702
:102AA000B94200D100BF1846C1F3421401F01F061D
:102AB000012707FA06F5012C01D10C3004E0022CA5
:102AC00001D1103000E014301AB107682F430760BD
:102AD00002E00768AF430760F0BD00002DE9F04752
:102AE00086B005460E460024A24600BFA146002738
:102AF000B08900B100BF2F462C8A4CF6FF7004400D
:102B0000F08804432C82AC894EF6F3100440B08860
:102B100031890843718908430443AC81AC8A4FF67C
:102B2000FF400440B0890443AC8201A8FFF774FC65
:102B30001F48874202D1DDF810A001E0DDF80CA0AB
:102B4000A88900F4004040B10AEBCA0000EB0A106B
:102B500031684900B0FBF1F807E00AEBCA0000EB6E
:102B60000A1031688900B0FBF1F86420B8FBF0F07E
:102B700004012009642101FB1089A88900F40040A8
:102B800040B1322000EBC900B0FBF1F000F00700CB
:102B9000044308E0322000EB09106421B0FBF1F09F
:102BA00000F00F0004432C8106B0BDE8F087000060
:102BB0000038014013B5044600BF80212046FFF7CE
:102BC00005FF0028F9D09DF80400A0801CBD00007E
:102BD00070B586B004460D461646029633488442C8
:102BE00012D12846FFF77CFD25208DF80400002037
:102BF000ADF814000C20ADF812000020ADF8100064
:102C0000ADF80E00ADF80C002948844212D12846D8
:102C1000FFF7BEFD26208DF804000020ADF814005B
:102C20000C20ADF812000020ADF81000ADF80E0039
:102C3000ADF80C001F48844212D12846FFF702FE6F
:102C400027208DF804000020ADF814000C20ADF80A
:102C500012000020ADF81000ADF80E00ADF80C0029
:102C600000212046FFF758FE2046FFF761FE02A92B
:102C70002046FFF733FF01212046FFF74DFE0122DA
:102C800040F225512046FFF703FF01208DF8070091
:102C900000208DF805002046FFF7D0FE8DF80600D5
:102CA00001A8FEF73DFC06B070BD000000380140F1
:102CB000004400400048004000BFFEE7490050EAE1
:102CC000C12018BF04204A0D18BF40F0010040F297
:102CD000FF72B2EB515F08BF40F00200012808BF4D
:102CE0000520704730380A2801D2012070470020A3
:102CF0007047000010B56FF00400FFF78BFC104820
:102D000000681049B0FBF1F00F4908700C480068EA
:102D10000C49B0FBF1F441F28830444305200B49E3
:102D200008804FF0E020006940F002004FF0E02101
:102D3000086108464461006940F00100086110BD67
:102D40000800002000127A001C0000201E00002055
:102D500070B504460F480078A0B10F48007888B9D4
:102D60000E480088844206DB0C48008894FBF0F58E
:102D7000284600F01DF80948008894FBF0F100FB9C
:102D8000114084B24FF47A7104FB01F000F016F8A0
:102D900070BD000086000020790000201E00002089
:102DA00010B5FEF797FC10BD10B5FEF7B3FC10BDD3
:102DB00010B504462046FEF7D5FE10BD2DE9F047BC
:102DC000074600264FF0E020D0F814901148007814
:102DD00007FB00F800BFFFF7E3FF4FF0E020856935
:102DE00011E04FF0E0208469AC420CD0AC4202D23A
:102DF000281B064403E0A9EB0400284406442546AA
:102E0000464500D300E0ECE700BFFFF7CDFFBDE88B
:102E1000F08700001C0000202DE9FC5F00200190DD
:102E20000090FFF763FACC20FFF782FA4420FFF707
:102E30007FFA02E0FFF72AFA0190019818B900988A
:102E4000B0F5FA6FF6DBFFF751FACC20FFF770FA16
:102E5000BE20FFF76DFAFFF719FA8246FFF716FA60
:102E60000446A1464FF6FF7000EA092949EA0A091B
:102E7000484600F015FA07460022064B00F0B8F865
:102E8000054600F083F88346C820FFF761FF5846E7
:102E9000BDE8FC9F0000304070B504460D46E1B22D
:102EA0000248FFF787FE204670BD00000038014051
:102EB00010B54FF4A060FEF76BFBFFF71BFF4FF45C
:102EC000E13200210748FFF783FEFEF76BFB032387
:102ED000054A00210548FEF773FCFEF74BFC002075
:102EE00010BD000000380140A40100200D2F000893
:102EF00007E0044904A0FDF7D1F94FF4FA60FFF7A9
:102F000027FFF6E7C80400202573000070B50446CB
:102F1000002500BF0020FEF7B7FB0C490860FDF755
:102F200063F9054601230A4A00210A48FEF748FCD6
:102F30000223094A00210948FEF742FC0320FEF75C
:102F4000BBFD2846FDF754F970BD000000000020CD
:102F5000A4020020ED240008A4040020F12E0008A3
:102F600010B500290AD00878002807D00548784411
:102F7000FDF716FE002801D0002010BD024878445D
:102F800010BD0000A60600009E06000021F00042D1
:102F9000A2F16052B2F5801F01F0004328BFD2F1C8
:102FA0007F6C0BD95FEA001C43EAC20242EB50700F
:102FB00018BF704728BF20F001007047B2F5801F8E
:102FC000BCBF184670474FEA410C1CF5001F02D2E7
:102FD000084600F03EBA70B500F075F900000089AF
:102FE000FFF7F6BF4FF00040A0F5800070470000EB
:102FF0002DE9C04130B4DFF8A0C23CEA111418BF7B
:103000003CEA131400F0EC8081EA03051CEA111479
:1030100044EAD57418BF1CEA131500F0C780A4EB6E
:1030200005044FF0004545EAC12145EAC32341EAC2
:10303000505143EA525304F17F74994204F500342D
:103040004FEAC0204FEAC22208BF904200F09C80A5
:103050004FEA13650FF24016765D4FEA134506FB03
:1030600005F7C7F1807706FB07F74FEAD737A7FBCD
:1030700003687642C8F58038A7FB06CE38BFA8F1B2
:10308000010807FB08E64FF0000EA6FB028CE6FBEA
:1030900003CEDCF1000CCEF1004E38BFAEF1010ED4
:1030A000A6FB0C584FF000074FF00005E6FB0E871B
:1030B000A1FB08C6A0FB07CE16EB0E0645F10005E6
:1030C000E1FB076515F1E04E7EBFA4F580345FEAB1
:1030D00046066D4116F1800745F100054FEA1727B6
:1030E0004FEA066647EA0567A6F1DE46B6F1805F5D
:1030F0004FEA15251FD9384624F0010C05EBC471A1
:10310000BCF1FE6F01EB0C1102D8F0BCBDE80081F0
:1031100024425CBF01F5801E9EEAC47F02D4F0BC4D
:10312000BDE80081244238D4F0BCA1F1C041BDE823
:10313000004100F016B94FEAD22242EA43524FEA68
:10314000D323A7FB02864FEAD02040EA415007FB79
:1031500003661EEA0E0F4FEAD12105FB026658BF37
:10316000A6EB0056B6EB00564FEA520E4EEAC37E6F
:1031700018EB0E0E56EB530EBDD518EB02085E4150
:103180007F1C55F10005B6E74FF480154FF000079E
:103190004FF000064FF00008ADE7F0BC4FF0000024
:1031A00001F1C04101F00041BDE8008111EA0C1FAE
:1031B0000CEA131500D00CE013EA0C1F00F0258078
:1031C0004FF00000F0BC81EA030101F00041BDE8CE
:1031D0000081F0BCBDE8004181EA030100F0C1B804
:1031E000F0BCBDE8004170B500F06DF8097EFC3E12
:1031F00000F007B881EA03014FF0000001F0004140
:10320000704781EA030100F0ACB8F0BCBDE80041B2
:103210004FF0000021497047FFFDFBF9F7F5F4F28C
:10322000F0EEEDEBE9E8E6E4E3E1E0DEDDDBDAD861
:10323000D7D5D4D3D1D0CFCDCCCBCAC8C7C6C5C4BF
:10324000C2C1C0BFBEBDBCBBBAB9B8B7B6B5B4B3D6
:10325000B2B1B0AFAEADACABAAA9A8A8A7A6A5A4C1
:10326000A3A3A2A1A09F9F9E9D9C9C9B9A99999885
:103270009797969595949393929191908F8F8E8E28
:103280008D8C8C8B8B8A89898888878786858584B5
:1032900084838382828181800000FF070000F87FA1
:1032A000B0FA80F310FA03F10AD0C3F11D0303F55D
:1032B00080634FEA41504FEA035202EBD12170473D
:1032C0004FF0000070470EF1020E2EF0030E5EF874
:1032D000046B364205D4012A43EB030515F5001FA4
:1032E00012D8012841EB010C1CF5001F0CD80ED19F
:1032F0004FEAD17C15F5001F0CEB4C0C0CF1020CC5
:1033000008BF4CEBD37C04E04FF0080C01E04FEA1F
:10331000D37C0CEB4C0526FA05F606F00706B6F151
:10332000040C06D20EEB860CBDE870404CF0010C8C
:103330006047DFE80CF0090B02024FF000414FF04C
:103340000000A1F5002170BD19461046012851EB7F
:10335000010418BFD4F5001484BF002001F000411F
:1033600070BD0808A0F500114FEA31017047000058
:1033700043004FEAD30C4FEA3C0C43401FBF4007C9
:103380000CF1605113F0FE4F70471CF0006F03D139
:1033900000200CF0004170470CF0004343EA5070ED
:1033A00010B540EACC0000F00EF800BF000000921B
:1033B0004FEA0001FFF7D5BF4FF000414FF000008A
:1033C000A1F5002170470EF1020E2EF0030E5EF8FB
:1033D000044B244204D44FEA4102B2F17F4F11D88A
:1033E0004FEA4003B3F17F4F0CD80ED14FEAD07CA7
:1033F000B2F17F4F0CEB4C0C0CF1020C08BF4CEB04
:10340000D17C04E04FF0080C01E04FEAD17C0CEBDA
:103410004C0324FA03F404F00704B4F1040C06D2BC
:103420000EEB840CBDE810404CF0010C6047DFE867
:103430000CF0070802024FF00040A0F5800010BD1C
:103440000846420018BFD2F1807288BF00F00040E9
:1034500010BDFF2141EAD050C0057047FDF7F1B81B
:103460000000010002000100030001000200010051
:10347000040001000200010003000100020001003D
:10348000050001000200010003000100020001002C
:10349000040001000200010003000100020001001D
:1034A000060001000200010003000100020001000B
:1034B00004000100020001000300010002000100FD
:1034C00005000100020001000300010002000100EC
:1034D00004000100020001000300010002000100DD
:1034E00007000100020001000300010002000100CA
:1034F00004000100020001000300010002000100BD
:1035000005000100020001000300010002000100AB
:10351000040001000200010003000100020001009C
:10352000060001000200010003000100020001008A
:10353000040001000200010003000100020001007C
:10354000050001000200010003000100020001006B
:10355000040001000200010003000100020001005C
:1035600002400000000000A0000000000540000034
:10357000000000C8000000000C4000000000409C5B
:1035800000000000194000000020BCBE0000000048
:1035900034400000BFC91B8E00000004B54000008D
:1035A000504BCFD06607E2CF010000006C41000015
:1035B0003E8251AADFEEA73401000000D94200008C
:1035C000DCB5A0E23A301F97FFFFFFFFB4450000D3
:1035D000FD25A0C8E9A3C14FFFFFFFFFFF3F00008B
:1035E0000000008000000000FF3F0000000000809D
:1035F000000000003036000800000020A800000095
:1036000028010008D8360008A8000020781500001E
:10361000440100081C00000043000000F8FFFFFF09
:103620000C0000000E0000000F0000002E00000043
:10363000000000000000000000A24A04000000009A
:103640000000000001020304060708090000000052
:1036500000000000DC04002020000000000000004A
:10366000FC04002020000000000000001C050020D9
:10367000200000000000000000000000000000002A
:1036800001020304010203040607080902040608F4
:10369000000000000000000000000000000000002A
:1036A000000000000000000000000000000000001A
:1036B000000000000000000000000000000000000A
:1036C00000000000000000000000000000000000FA
:0836D0000000000000000000F2
:04000005080001A945
:00000001FF
