:020000040800F2
:10000000B8070020E5010008E1130008D913000833
:10001000DD13000883120008311F000800000000F3
:10002000000000000000000000000000B9160008F9
:10003000871200080000000061150008CD170008B5
:10004000FF010008FF010008FF010008FF01000890
:10005000FF010008FF010008FF010008FF01000880
:10006000FF010008FF010008FF010008FF01000870
:10007000FF010008FF010008FF010008FF01000860
:10008000FF010008FF010008FF010008FF01000850
:10009000FF010008FF010008FF010008FF01000840
:1000A000FF010008FF010008FF010008FF01000830
:1000B000FF010008FF010008FF010008FF01000820
:1000C000FF010008FF010008FF010008FF01000810
:1000D000FF010008A118000851190008051A0008BE
:1000E000FF010008FF010008FF010008FF010008F0
:1000F000FF010008FF010008FF010008FF010008E0
:10010000FF010008FF010008FF010008FF010008CF
:10011000311800086D180008FF010008FF010008F1
:10012000FF010008FF010008FF010008FF010008AF
:1001300000F002F800F047F80AA090E8000C8244B2
:100140008344AAF10107DA4501D100F03CF8AFF28F
:10015000090EBAE80F0013F0010F18BFFB1A43F0A5
:1001600001031847EC2500000C260000103A24BFBC
:1001700078C878C1FAD8520724BF30C830C144BF0C
:1001800004680C607047000000230024002500264E
:10019000103A28BF78C1FBD8520728BF30C148BFEA
:1001A0000B607047662902F08682002070471FB5F9
:1001B00000F02AFB04000020002101F0BDFFE060F8
:1001C0001FBD10B510BD00F01FFC1146FFF7EFFF7B
:1001D00001F07AFF00F03DFC03B4FFF7F2FF03BC2F
:1001E00000F080FC0948804709480047FEE7FEE729
:1001F000FEE7FEE7FEE7FEE7FEE7FEE7FEE7FEE7D7
:1002000004480549054A064B70470000D11700080D
:1002100031010008B8010020B8070020B803002011
:10022000B80300200FB41CB5074B06AA7B446946EF
:100230000090059800F0CFFA0020694600F0DEFA41
:100240001CBC5DF814FB0000CD05000070B5044631
:1002500085690068C10601D5302600E02026C00768
:1002600007D070BDD4E9012130469047206A401C78
:1002700020626D1EF6D570BD70B5044685690078A4
:10028000C00707D170BDD4E9012120209047206A22
:10029000401C20626D1EF6D570BD2DE9F0474FF071
:1002A000000A89460446C0F820A02046E168884735
:1002B000002876D0252806D0D4E901219047206A6D
:1002C000401C2062F1E7E168204600258847C4F819
:1002D0001CA006460027C4F818A02A2E09D03046D4
:1002E00001F03CFE38B304EB8708303EC8F81860D4
:1002F00019E059F8041B204604EB87029161E1687C
:100300008847012F064618D1E069002820DA25F039
:1003100020051DE0D8F8180000EB800006EB400037
:100320003038C8F818002046E1688847064601F0D2
:1003300015FE0028EED1012F0AD02E2E08D120461E
:10034000E16888477F1C0646022F45F02005C4DB84
:10035000A069002803DA404245F00105A061E807E2
:1003600001D025F01005B6B1A6F14100192802D838
:10037000203645F400654A463146204625604D4604
:10038000FFF710FF58B1012806D0ED1D25F007003A
:1003900000F1080989E704E005F1040985E7304622
:1003A0008AE7206ABDE8F08770477047704770475A
:1003B0002DE9FF4F0C461E464FF0FF378BB0D2E9B8
:1003C0000001DDF860800A908A46C1F30A5505B93C
:1003D0003D46002108464FF00000BAF1000F00F43E
:1003E000400005DA00EB80004FF4400101EA5000C4
:1003F0004FEA9059B9F1010F00DDB9460A9850EA69
:100400004A000ED044F61050A5F2FF3545432F1494
:10041000B8F1000F1ED07542291E1EDDC9F1000281
:100420001CE0B8F1010F4FF0000001D0302103E0D3
:10043000F24305E02154401CB042FBDB3046002271
:10044000002121540B99C1F80880C1E900200FB0A8
:10045000BDE8F08FBD1B6D1CDEE74A4600DA69423D
:1004600006A800F05BFA06AB93E8070003AB83E84D
:10047000070050460A9900F03CFB8DE80700A0F504
:1004800000501F3800900398002D0ADD42F21F0132
:100490004A460844002303A90390684600F0A5FDDE
:1004A00009E0A0F500504A461F38002303A9039035
:1004B000684600F0AFFD8DE807000004000C03D093
:1004C0004FF0FF30410800E01046B8F1000F03D0B4
:1004D0000022009215461EE0751E05D400F098F922
:1004E000303262556D1EF9D5B3460122084302D061
:1004F00000227F1C04E02078302801D100227F1EDA
:10050000002A099784D01DE0112D07DA00F080F948
:10051000303262556D1C50EA0102F5D1084302D019
:100520000098C8B10EE00021681E05E0235C625C03
:1005300063542254401E491C8142F7DBAB46A81B82
:10054000401E0990002004F80B000B98099AC0F88F
:100550000880C0E9002B7AE711264FF0000857E722
:100560002DE9F04F88460446D21D22F0070191B0D4
:10057000D1E90001CDE90A0101F0DCFC02460B984B
:10058000C00F01D02D2007E02068810701D52B2066
:1005900002E0202101EAC000032A099001D0072AC5
:1005A00005DB03464146204600F078F90BE1207850
:1005B000800601D5E06900E00620B8F1650F8146AC
:1005C00006D0B8F1660F18D0B8F1670F70D131E0DE
:1005D0000020B9F1110F009001DB112301E009F1B6
:1005E00001030AAA01A90CA8FFF7E2FEDDE90C70DD
:1005F000002609F10105834647E001204B460090A3
:100600004FF000470AAA01A90CA8FFF7D1FEDDE9C7
:100610000DB00C995D46002610B909F101000D18C6
:10062000B9EB050003D4C0F1FF3609F10105A5EBD4
:1006300009002BE0B9F1010F01DA4FF001090020A8
:10064000B9F1110F0090484601DD112300E0034687
:100650000AAA01A90CA8FFF7ABFEDDE90C704D4614
:1006600000268346207800070AD4AB4500DA5D46B1
:1006700001A8012D04DD411911F8011C302907D012
:100680004F4502DA17F1040F04DA012082460FE029
:100690006D1EEEE7002F02DCED1B3E4403E0781CEC
:1006A000A84200DD7D1CB81B00F1010A4FF0004795
:1006B0002078000703D4AA4501DB4FF0FF3A002160
:1006C000B7F1004F0DF143088DF8431024D00220FC
:1006D0002B23002F01DA7F422D230A21021EA0F1D5
:1006E000010000DC5FB197FBF1FC97FBF1F201FB2D
:1006F0001C7C17460CF1300C08F801CDEEE7A8F190
:10070000010003702188090501D5452100E065211C
:10071000A0F1010800F8011C09980FA9A1EB080736
:10072000FF1D00B10120411901EBEA70A1693844B5
:10073000081A401EA0612078C00602D42046FFF7A8
:1007400085FD099828B1D4E901219047206A401C11
:1007500020622078C00622D52046FFF777FD1EE0F4
:10076000002E04DBB34502DD01A8805D00E03020EF
:10077000D4E901219047206A401C2062761CAAF12E
:1007800001005FEA000A0AD100F03EF8C068016883
:10079000405CD4E901219047206A401C2062281E59
:1007A000A5F10105DCDC07E0D4E9012118F8010B13
:1007B0009047206A401C2062381EA7F10107F3DC35
:1007C0002046FFF759FD032011B041E601694A1C9C
:1007D00002610878704700B58FB0CDE90131002182
:1007E000059105497944CDE9031011466846FFF7A4
:1007F00054FD0FB000BD0000E5FFFFFF0A6802F8DE
:10080000010B0A6070470000004870477801002023
:1008100030B5B0F10A024FEA900E71F100034EEAD2
:10082000817EB0EB0E0061EB91014FEA101E4EEAA3
:10083000017E10EB0E0041EB11114FEA102E4EEA33
:10084000016E10EB0E0041EB11214FEA104E4EEA03
:10085000014E10EB0E0041EB1141401841F1000137
:100860004FEAD00040EA41704FEAD10110EB800519
:100870004FEA810444EA907444EB01046D1944EB9F
:100880000404521BA3414FF0000348BF0A3200D5B5
:1008900030BD401C41F1000130BD00002DE9F041A8
:1008A0001F46044603260168072A01F4006004DBA2
:1008B00008B116A505E016A503E008B115A500E0EE
:1008C00015A521F010002060A069C01EA0610FB125
:1008D000401EA0612046FFF7B9FC4FB1D4E90121C9
:1008E00038469047206A401C2062C01C206206E007
:1008F000206AFAE7D4E9012115F8010B9047761E2A
:10090000F8D22046FFF7B8FCBDE8F0814E414E001A
:100910006E616E00494E4600696E66002DE9F04733
:10092000814616468AB0354878440DC88DE80D00DA
:1009300032487844801C03AC0DC884E80D0041F6B1
:100940009B300844372190FBF1F290FBF1F5A5F1C3
:10095000800501FB12041B3C02D56442012000E02B
:100960000020DFF898A080460027FA44AAF1BE0ACA
:100970000EE0E0070AD03246684607EB4701012344
:100980000AEB810100F046FB8DE8070064107F1C34
:10099000002CEED1194F7F44AE3F19E0E80715D087
:1009A00007EB04100DF1180A90E80E008AE80E001B
:1009B000C068F04201D1981908903246012306A977
:1009C00003A800F027FB03AB83E807006D10641C4D
:1009D000002DE3D14FF0010332466946B8F1000F14
:1009E00003A802D000F001FB01E000F013FBC9E90D
:1009F0000001C9F808200AB0BDE8F0870C1E00000D
:100A000000487047580100207546FFF7F9FFAE46D1
:100A100005006946534620F00700854618B020B50A
:100A2000FFF7EEFBBDE820404FF000064FF0000757
:100A30004FF000084FF0000B21F00701AC46ACE886
:100A4000C009ACE8C009ACE8C009ACE8C0098D46F3
:100A5000704710B50446AFF300802046BDE8104053
:100A6000FFF7BABB4FF0013C50F8042B51F8043BA0
:100A70009A4221D1A2EB0C03934313EACC1317D172
:100A800050F8042B51F8043B9A4215D1A2EB0C0309
:100A9000934313EACC130BD150F8042B51F8043BC9
:100AA0009A4209D1A2EB0C03934313EACC13DBD097
:100AB0004FF00000704700BFD01A01BAB1FA81F1BF
:100AC00001F0180122FA01F0CB40C1F12001DBB2A4
:100AD000C0B2C01A2CFA01F3D11A914311EAC31122
:100AE000E6D1704701491820ABBEFEE726000200A0
:100AF00070475FEA400C08BF91F0000F4FEA8C236B
:100B00004FEAC12243EA51514FEA1C5018BF00F589
:100B1000F0404FEA300018BF41F000415FEA6C5CE2
:100B200000F02980BCF1FF3F08BF40F080407047D3
:100B3000130C06BF12044FF0100C4FF0000C130EF4
:100B400004BF12020CF1080C130F04BF12010CF1C8
:100B5000040C930F04BF92000CF1020CD30F04BFDE
:100B600052000CF1010C11464FF00002A0F11F00E1
:100B7000A0EB0C00704711F0004F08BF704731F038
:100B800000413FF4D5AF0B0C06BF09044FF0100C29
:100B90004FF0000C0B0E04BF09020CF1080C0B0FF8
:100BA00004BF09010CF1040C8B0F04BF89000CF188
:100BB000020CCB0F04BF49000CF1010CCCF1200357
:100BC000A0EB0C0022FA03F302FA0CF241EA030153
:100BD00000F10100704720F07F4C80EA030023F011
:100BE0007F47ACEB070303F57C5300F0004003F1B3
:100BF000FF032DE980494FEA154B09B44FEA14432E
:100C000025EA0B4E24EA03480FF2042606EB1327CD
:100C100049083E785FEA320203FB0667C7F5000722
:100C200007FB06F64FEA54374FEAD64606F10206AE
:100C300007FB066CCCF1005C4FEA1C472CEA074C22
:100C400007FB06F40CFB06F504EB15464FEA961677
:100C500034BF00204FF000404FEAD13706FB07FCBD
:100C60004FEA1C4C0CFB0BF7D21B03FB0CF761EBA0
:100C700007010CFB0EF7B0EB074072EB17420CFBC1
:100C800008F734BFA2EB0742B2EB074261EB174112
:100C90004FEA0C444FEA910706FB07FC4FEA1C4C55
:100CA0000CFB0BF7B0EBC74072EB573203FB0CF7B2
:100CB00034BFA2EBC742B2EBC74261EB57310CFB2A
:100CC0000EF7B0EBC70072EB57720CFB08F734BF9E
:100CD000A2EBC702B2EBC70261EB5771039F4FEA69
:100CE000816141EA921104EBCC044FEAD1374FEA1B
:100CF000826206FB07FC42EA90124FEA80604FEAEC
:100D00001C4C0CFB0BF7D21B03FB0CF761EB070130
:100D10000CFB0EF7B0EB074072EB17420CFB08F729
:100D200034BFA2EB0742B2EB074261EB17414FEA37
:100D30008C554FEA910704EB9C2406FB07FC4FEA15
:100D40001C4C0CFB0BF7B0EBC74072EB573203FBAC
:100D50000CF734BFA2EBC742B2EBC74261EB57318D
:100D60000CFB0EF7B0EBC70072EB57720CFB08F7E9
:100D700034BFA2EBC702B2EBC70261EB577115EBB0
:100D80004C254FEA816141EA92114FEA82624FEAB3
:100D9000D13742EA901206FB07FC44F100044FEA07
:100DA00080604FEA1C4C0CFB0BF7D21B03FB0CF7CB
:100DB00061EB07010CFB0EF7B0EB074072EB17423B
:100DC0000CFB08F734BFA2EB0742B2EB074261EB22
:100DD000174115EB1C154FEA813141EA92414FEA68
:100DE000823242EA90424FEA80304FEA0C7644F178
:100DF000000448EA03434EEA0B484FF0000EB2EB02
:100E0000080C71EB030724BF624639464EEB0E0E09
:100E10004FF0000B0018524149414BEB0B0BB2EB6A
:100E2000080C71EB03077BF1000B24BF62463946C7
:100E30004EEB0E0E4FF0000B0018524149414BEBA8
:100E40000B0BB2EB080C71EB03077BF1000B24BF1B
:100E5000624639464EEB0E0E51EA020718BF46F0C5
:100E6000010616EB0E7655F1000254F1000103D590
:100E7000BDE88901BDE80088BDE88901BDE80048FA
:100E8000B619524141EB0101A3F101037047808083
:100E90007F7E7D7C7B7A79787776767574737271D4
:100EA00071706F6E6E6D6C6C6B6A6A69686867668C
:100EB00066656464636362616160605F5F5E5E5D1E
:100EC0005D5C5C5B5B5A5A59595858575756565592
:100ED00055555454535352525251515050504F4FF4
:100EE0004F4E4E4D4D4D4C4C4C4B4B4B4A4A4A4944
:100EF0004949484848474747474646464545454487
:100F00004444444343434342424242414141002B13
:100F10009C4630D477002BD01CB54FEA370703B47A
:100F20004FF010004FF01001BAF1000F06D0BCF1E5
:100F3000000FDCBF40F0080040F008014FF0000057
:100F40000FBCBDE810400BF1010BBBF1010F08BF56
:100F50005FEA170722BF12F1010211F101014FF000
:100F6000004143F1000300F0004043EA00007047F5
:100F7000F9D35708D0E746EA064613F1400F4FEA87
:100F800016461FDD13F1200FDFBF16430A4600216E
:100F900020335B42BED0C3F1200746EA064602FA80
:100FA00007F74FEA164646EA0706C3F1200722FA7A
:100FB00003F201FA07F721FA03F14FF0000342EAC6
:100FC0000702A7E746EA020646EA06464FEA164641
:100FD00046EA0106BCBF46EA0646360C4FF000035F
:100FE0004FF000024FF0000194E72DE9804C9A4643
:100FF000934670B491E8380007C831EA400C48BF06
:1010000034EA430C03D5FFF7E6FDFFF780FFF0BCA1
:10101000BDE8008C2DE9804C9A46934670B491E867
:10102000380007C810F0804F08BF13F0804F03D17D
:1010300000F005F8FFF76BFFF0BCBDE8008C20F076
:101040007F4780EA030023F07F4C07EB0C03A3F5F6
:101050007C5300F00040A3F1FE0392F0000F00F07B
:10106000B38095F0000F00F077802DE901494FEA39
:1010700011404FEA144621EA004800FB06FC24EA2E
:10108000064708FB06F607FB08F800FB07F718EB16
:1010900006484CEB164C4FEA124B18EB07484FEA48
:1010A00015464CEB174022EA0B4E0BFB06FC25EADB
:1010B00006470EFB06F607FB0EFE0BFB07F71EEBC3
:1010C000064E4CEB164C4FF000061EEB074E4CEB59
:1010D000174B18EB0B0840F1000018EB0E0B58EB08
:1010E000000840F100008F1A4FF000013CBFC943D7
:1010F000661B14BFB5EB040C00213CBFC943F61BB3
:101100004FEA17444EEA8E0E27EA04454FEA1C4781
:1011100004FB07622CEA074C05FB07F70CFB05F6FE
:1011200004FB0CFC16EB074642EB174216EB0C4691
:1011300042EB1C421BEB060658EB0202414146EA19
:101140009E0601D5BDE80189B619524141EB010166
:10115000A3F10103BDE801894FEA14454FEA1147A5
:1011600024EA054621EA074C05FB07F406FB07F7CE
:101170000CFB06F105FB0CFC11EB074144EB17449B
:101180004FEA124711EB0C4144EB1C4422EA074C96
:1011900005FB07F206FB07F70CFB06F605FB0CFC4C
:1011A00016EB074642EB174216EB0C4642EB1C458A
:1011B0006A1854F1000148BF7047B619524141EB1B
:1011C0000101A3F10103704795F0000F37D04FEAFA
:1011D00011424FEA144721EA024624EA074C02FB77
:1011E00007F106FB07F70CFB06F402FB0CFC14EB03
:1011F000074441EB17414FEA154714EB0C4441EB10
:101200001C4125EA074C02FB07F506FB07F70CFB20
:1012100006F602FB0CFC16EB074645EB174516EBF2
:101220000C4645EB1C42121951F1000148BF7047B2
:10123000B619524141EB0101A3F1010370474FEA96
:1012400014454FEA114724EA054621EA074C05FBFD
:1012500007F106FB07F70CFB06F24FF0000605FB53
:101260000CFC12EB074241EB174112EB0C4251EB25
:101270001C4148BF7047921841EB0101A3F10103E3
:10128000704700BFFEE770472DE9F0410246002598
:101290000026002000230024002791F803C00CF052
:1012A0000F0591F803C00CF0100CBCF1000F03D037
:1012B00091F802C04CEA050591F800C0BCF1000F9E
:1012C00031D0146800202BE04FF0010C0CFA00F331
:1012D000B1F800C00CEA03069E4220D183004FF013
:1012E0000F0C0CFA03F7BC4305FA03FC4CEA0404A8
:1012F00091F803C0BCF1280F06D14FF0010C0CFA95
:1013000000FCC2F814C00AE091F803C0BCF1480F19
:1013100005D14FF0010C0CFA00FCC2F810C0401CC3
:101320000828D1D31460B1F800C0BCF1FF0F34DD40
:10133000546800202EE000F1080C4FF0010808FA74
:101340000CF3B1F800C00CEA03069E4221D18300E1
:101350004FF00F0C0CFA03F7BC4305FA03FC4CEA00
:10136000040491F803C0BCF1280F05D100F1080C6A
:1013700008FA0CF8C2F8148091F803C0BCF1480FC9
:1013800007D100F1080C4FF0010808FA0CF8C2F878
:101390001080401C0828CED35460BDE8F08102467E
:1013A000002093680B400BB1012000E00020704743
:1013B0004161704701617047F8B506460C46154615
:1013C000ADF800408DF8035003208DF80200694607
:1013D0003046FFF759FFF8BD00BFFEE700BFFEE74C
:1013E0007047000070B5002100230F22C47804B3B9
:1013F000154C246804F4E064C4F5E064210AC1F1EA
:101400000403CA40447804FA03F184781440214369
:1014100009010E4C0678A155047804F01F0501243B
:10142000AC4005786D11AD0005F1E025C5F800412F
:1014300009E0047804F01F050124AC40044D06784F
:10144000761145F8264070BD0CED00E000E400E0A8
:1014500080E100E070B50025002424E014224FF460
:1014600000711348FFF7A8FF4FF400711048FFF711
:101470009FFF022000F0C2FD0422D1010C48FFF7BB
:101480009BFF082000F0BAFD4FF400710848FFF7F9
:1014900086FF18B10120A0402843C5B2782000F093
:1014A000ADFD601CC4B2082CD8DB284670BD00001E
:1014B000000C014010B514224FF400710D48FFF7E5
:1014C0007BFF4FF400710B48FFF772FF4FF4FA7087
:1014D00000F094FD0422D1010648FFF76DFF4FF4A0
:1014E000FA7000F08BFD0422D1010248FFF764FF7F
:1014F00010BD0000000C014070B50446002529E035
:1015000014224FF400711548FFF756FF4FF4007195
:101510001248FFF74DFF022000F070FD04F00100BB
:1015200028B14FF400710D48FFF744FF04E04FF479
:1015300000710A48FFF73CFF64103C2000F05EFD9C
:101540000422D1010548FFF737FF022000F056FDC5
:10155000681CC5B2082DD3DB70BD0000000C014033
:101560007047000029B1064AD2690243044BDA6190
:1015700004E0034AD2698243014BDA6170470000FC
:101580000010024029B1064A12690243044B1A6155
:1015900004E0034A12698243014B1A61704700005C
:1015A0000010024029B1064A92690243044B9A6135
:1015B00004E0034A92698243014B9A61704700003C
:1015C0000010024029B1064AD2680243044BDA6097
:1015D00004E0034AD2688243014BDA60704700009E
:1015E0000010024030B500210022002400232D4DC0
:1015F0006D6805F00C0121B1042905D0082923D11B
:1016000005E0294D056022E0274D05601FE0254DCE
:101610006D6805F47012234D6D6805F48034022561
:1016200005EB92421CB9214D554305600BE01D4D61
:101630006D6805F400351DB11C4D5543056002E091
:10164000194D5543056002E0174D056000BF00BF0E
:10165000144D6D6805F0F0010909154D6B5C0568C6
:10166000DD4045600F4D6D6805F4E061090A104DDD
:101670006B5C4568DD4085600A4D6D6805F460511E
:10168000C90A0B4D6B5C4568DD40C560054D6D6852
:1016900005F44041890B074D6B5CC568B5FBF3F55C
:1016A000056130BD0010024000127A0000093D00C3
:1016B0005400002064000020704710B500F002F8CC
:1016C00010BD00000CB50020019000903348006868
:1016D00040F480303149086000BF3048006800F4B1
:1016E000003000900198401C0190009818B90198B2
:1016F000B0F5A06FF1D12948006800F4003010B1B6
:101700000120009001E0002000900098012843D1C2
:101710002348006840F0100021490860084600682E
:1017200020F0030008600846006840F002000860EE
:101730001A484068194948600846406848600846A9
:10174000406840F4806048600846406820F47C109F
:1017500048600846406840F4E81048600846006861
:1017600040F08070086000BF0C48006800F0007016
:101770000028F9D00948406820F003000749486074
:101780000846406840F00200486000BF03484068D7
:1017900000F00C000828F9D10CBD00000010024038
:1017A00000200240042808D14FF0E021096941F0EF
:1017B00004014FF0E022116107E04FF0E0210969D8
:1017C00021F004014FF0E0221161704770470000E2
:1017D00010B51348006840F0010011490860084640
:1017E0004068104908400E494860084600680E49A4
:1017F00008400B4908600846006820F48020086013
:101800000846406820F4FE0048604FF41F008860DE
:10181000FFF753FF4FF000600449086010BD00005F
:10182000001002400000FFF8FFFFF6FE08ED00E0A8
:1018300010B540F22551064800F0C9F930B104480E
:10184000001D0088C1B2034800F00CFA10BD000072
:10185000004C00402C00002010B504460121C804B3
:10186000FFF780FE072C00D000BF10BD10B540F27E
:101870002551054800F0ABF928B103488088C1B272
:10188000024800F0EFF910BD005000403800002081
:1018900010B5044601210805FFF764FE10BD0000E5
:1018A00010B540F22551064800F091F930B10448D6
:1018B000001D0088C1B2034800F0D4F910BD00003B
:1018C000003801400800002010B50446E4B90121A9
:1018D0000520FFF767FE01218803FFF763FE4FF441
:1018E0000070184908801820C870032088701648B6
:1018F000FFF7CAFC4FF48060124908800420C870CA
:101900001148FFF7C1FC1BE0012C19D1012108206F
:10191000FFF748FE01218803FFF744FE40200949F4
:1019200008801820C870032088700848FFF7ACFCB6
:101930008020044908800420C8700448FFF7A4FCF4
:1019400010BD00005000002000080140000C0140C4
:1019500010B540F22551064800F039F930B104487D
:10196000001D0088C1B2034800F07CF910BD0000E2
:10197000004400401400002010B504460121480432
:10198000FFF7F0FD022C1AD101210420FFF70AFE17
:1019900001214804FFF7E6FD0420174908801820BC
:1019A000C870032088701548FFF76EFC08201249A4
:1019B00008800420C8701148FFF766FC1BE0032C68
:1019C00019D101212020FFF7EDFD01214804FFF787
:1019D000C9FD2020084908801820C870032088709D
:1019E0000748FFF751FC4020034908800420C870D5
:1019F0000348FFF749FC10BD5000002000080140DB
:101A00000014014010B540F22551064800F0DFF8FF
:101A100030B10448001D0088C1B2034800F022F92B
:101A200010BD0000004800402000002010B5044612
:101A300001218804FFF796FD042C1AD1012108200A
:101A4000FFF7B0FD01218804FFF7ACFD2002284913
:101A500008801820C870032088702648FFF714FCFF
:101A60006002234908800420C8702248FFF70CFC5C
:101A70003CE0052C1CD101211020FFF793FD012132
:101A80008804FFF78FFD4FF4806019490880182003
:101A9000C870032088701848FFF7F6FB4FF4006009
:101AA000134908800420C8701348FFF7EDFB1DE0C0
:101AB000062C1BD101212020FFF774FD0121880491
:101AC000FFF770FD4FF48070094908801820C87036
:101AD000032088700948FFF7D7FB4FF400700449D2
:101AE00008800420C8700548FFF7CEFB10BD000039
:101AF00050000020000C0140001001400014014083
:101B000021B1828942F40052828104E082894DF63B
:101B1000FF731A408281704710B504462048844202
:101B200009D101218803FFF74DFD00214FF48040CA
:101B3000FFF748FD32E01B48844209D101214804E7
:101B4000FFF720FD00214FF40030FFF71BFD25E0DB
:101B50001548844209D101218804FFF713FD0021B3
:101B60004FF48020FFF70EFD18E01048844209D1A1
:101B70000121C804FFF706FD00214FF40020FFF704
:101B800001FD0BE00A48844208D101210805FFF756
:101B9000F9FC00214FF48010FFF7F4FC10BD0000A9
:101BA000003801400044004000480040004C004024
:101BB0000050004002460020B1F5007F00D100BF78
:101BC00013880B400BB1012000E00020704770B576
:101BD0000246002400230025002040F66A16B14288
:101BE00000D100BFC1F3421501F01F03012606FA20
:101BF00003F3012D02D19689334006E0022D02D174
:101C0000168A334001E0968A33400C12012606FA08
:101C100004F41688344013B10CB1012000E0002018
:101C200070BD000001460A4A914200D10020094AD5
:101C3000914200D10120084A914200D10220074A76
:101C4000914200D10420064A914200D105207047FC
:101C5000003801400044004000480040004C004073
:101C60000050004010B5C28883889A420FDA02897A
:101C700083889A4201D1002202814AB20489036812
:101C80001A550289521C0281C288521CC28010BDA2
:101C9000F0B50346002400260025002040F66A1710
:101CA000B94200D100BF1846C1F3421401F01F062B
:101CB000012707FA06F5012C01D10C3004E0022CB3
:101CC00001D1103000E014301AB107682F430760CB
:101CD00002E00768AF430760F0BD00002DE9F04760
:101CE00086B005460E460024A24600BFA146002746
:101CF000B08900B100BF2F462C8A4CF6FF7004401B
:101D0000F08804432C82AC894EF6F3100440B0886E
:101D100031890843718908430443AC81AC8A4FF68A
:101D2000FF400440B0890443AC8201A8FFF75AFC8D
:101D30001F48874202D1DDF810A001E0DDF80CA0B9
:101D4000A88900F4004040B10AEBCA0000EB0A1079
:101D500031684900B0FBF1F807E00AEBCA0000EB7C
:101D60000A1031688900B0FBF1F86420B8FBF0F08C
:101D700004012009642101FB1089A88900F40040B6
:101D800040B1322000EBC900B0FBF1F000F00700D9
:101D9000044308E0322000EB09106421B0FBF1F0AD
:101DA00000F00F0004432C8106B0BDE8F08700006E
:101DB0000038014013B5044600BF80212046FFF7DC
:101DC000F9FE0028F9D09DF80400A0801CBD70B574
:101DD00005460C4604E014F8011B2846FFF7EAFF0D
:101DE00020780028F7D170BD70B586B004460D4646
:101DF000164602964948844212D12846FFF764FDF0
:101E000025208DF804000020ADF814000C20ADF85A
:101E100012000020ADF81000ADF80E00ADF80C0077
:101E20003F48844212D12846FFF7A6FD26208DF8B0
:101E300004000020ADF814000C20ADF812000020C2
:101E4000ADF81000ADF80E00ADF80C003548844236
:101E500012D12846FFF7EAFD27208DF80400002064
:101E6000ADF814000C20ADF812000020ADF8100001
:101E7000ADF80E00ADF80C002B48844212D1284674
:101E8000FFF7EAFC34208DF804000020ADF81400C0
:101E90000C20ADF812000020ADF81000ADF80E00D7
:101EA000ADF80C002148844212D12846FFF7F0FC1F
:101EB00035208DF804000020ADF814000C20ADF89A
:101EC00012000020ADF81000ADF80E00ADF80C00C7
:101ED00000212046FFF714FE2046FFF71DFE02A951
:101EE0002046FFF7FBFE01212046FFF709FE0122F5
:101EF00040F225512046FFF7CBFE01208DF8070068
:101F000000208DF805002046FFF78CFE8DF80600B6
:101F100001A8FFF767FA06B070BD00000038014065
:101F20000044004000480040004C00400050004089
:101F300000BFFEE7490050EAC12018BF04204A0D47
:101F400018BF40F0010040F2FF72B2EB515F08BFD2
:101F500040F00200012808BF0520704730380A28E9
:101F600001D20120704700207047000010B56FF0CB
:101F70000400FFF717FC0A4800680A49B0FBF1F0BB
:101F8000094908700846007800EB4001C1EBC01019
:101F90004FF6FF7101EAC0000449088010BD00003F
:101FA0007000002000127A000000002002000020D3
:101FB0000146114A12884A434FF0E0235A61002239
:101FC0009A611A46126942F001021A6100BF4FF08D
:101FD000E022106900F001021AB100F48032002AF8
:101FE000F5D04FF0E022126922F001024FF0E02319
:101FF0001A6100229A617047020000200146114ACE
:1020000012784A434FF0E0235A6100229A611A463F
:10201000126942F001021A6100BF4FF0E02210691C
:1020200000F001021AB100F48032002AF5D04FF01E
:10203000E022126922F001024FF0E0231A6100222F
:102040009A617047000000202DE9FC5F002001909C
:102050000090FFF72FFACC20FFF74EFA4420FFF74D
:102060004BFA02E0FFF7F6F90190019818B90098D1
:10207000B0F5FA6FF6DBFFF71DFACC20FFF73CFA5C
:10208000BE20FFF739FAFFF7E5F98246FFF7E2F9DC
:102090000446A1464FF6FF7000EA092949EA0A09F9
:1020A000484600F0E9F907460022064B00F08CF89C
:1020B000054600F057F88346C820FFF779FF5846D9
:1020C000BDE8FC9F00003040FFF750FF4FF4E132C5
:1020D00000211348FFF788FE21E0FFF7B5FF114903
:1020E00008604FF47A70FFF763FF0E48006800F055
:1020F0002BFA044622460B460BA10D48FEF792F838
:10210000084801680B48006800F056FA07D00849F3
:102110000348FFF75CFE0348006806490860DCE7F7
:10212000003801406800002025332E32660A000086
:10213000440100206C00002010B500290AD0087866
:10214000002807D005487844FEF78CFC002801D011
:10215000002010BD0248784410BD00002A0600008F
:102160002206000021F00042A2F16052B2F5801F69
:1021700001F0004328BFD2F17F6C0BD95FEA001C4D
:1021800043EAC20242EB507018BF704728BF20F0EC
:1021900001007047B2F5801FBCBF184670474FEA78
:1021A000410C1CF5001F02D2084600F07FBA70B542
:1021B00000F075F900000089FFF7F6BF4FF000400E
:1021C000A0F58000704700002DE9C04130B4DFF871
:1021D000A0C23CEA111418BF3CEA131400F0EC80D2
:1021E00081EA03051CEA111444EAD57418BF1CEAFD
:1021F000131500F0C780A4EB05044FF0004545EA35
:10220000C12145EAC32341EA505143EA525304F144
:102210007F74994204F500344FEAC0204FEAC2228D
:1022200008BF904200F09C804FEA13650FF2401601
:10223000765D4FEA134506FB05F7C7F1807706FB8D
:1022400007F74FEAD737A7FB03687642C8F580380F
:10225000A7FB06CE38BFA8F1010807FB08E64FF040
:10226000000EA6FB028CE6FB03CEDCF1000CCEF1E7
:10227000004E38BFAEF1010EA6FB0C584FF0000720
:102280004FF00005E6FB0E87A1FB08C6A0FB07CEBA
:1022900016EB0E0645F10005E1FB076515F1E04E72
:1022A0007EBFA4F580345FEA46066D4116F18007D3
:1022B00045F100054FEA17274FEA066647EA05672A
:1022C000A6F1DE46B6F1805F4FEA15251FD93846E4
:1022D00024F0010C05EBC471BCF1FE6F01EB0C1195
:1022E00002D8F0BCBDE8008124425CBF01F5801E2D
:1022F0009EEAC47F02D4F0BCBDE80081244238D4F9
:10230000F0BCA1F1C041BDE8004100F016B94FEAB0
:10231000D22242EA43524FEAD323A7FB02864FEA76
:10232000D02040EA415007FB03661EEA0E0F4FEA39
:10233000D12105FB026658BFA6EB0056B6EB00564E
:102340004FEA520E4EEAC37E18EB0E0E56EB530EBA
:10235000BDD518EB02085E417F1C55F10005B6E7BC
:102360004FF480154FF000074FF000064FF00008C3
:10237000ADE7F0BC4FF0000001F1C04101F00041B9
:10238000BDE8008111EA0C1F0CEA131500D00CE027
:1023900013EA0C1F00F025804FF00000F0BC81EA2A
:1023A000030101F00041BDE80081F0BCBDE800413F
:1023B00081EA030100F0C1B8F0BCBDE8004170B58E
:1023C00000F06DF8097EFC3E00F007B881EA0301D9
:1023D0004FF0000001F00041704781EA030100F076
:1023E000ACB8F0BCBDE800414FF000002149704797
:1023F000FFFDFBF9F7F5F4F2F0EEEDEBE9E8E6E4CA
:10240000E3E1E0DEDDDBDAD8D7D5D4D3D1D0CFCD50
:10241000CCCBCAC8C7C6C5C4C2C1C0BFBEBDBCBB89
:10242000BAB9B8B7B6B5B4B3B2B1B0AFAEADACAB84
:10243000AAA9A8A8A7A6A5A4A3A3A2A1A09F9F9E5E
:102440009D9C9C9B9A999998979796959594939310
:10245000929191908F8F8E8E8D8C8C8B8B8A8989A7
:10246000888887878685858484838382828181802A
:102470000000FF070000F87FB0FA80F310FA03F1C4
:102480000AD0C3F11D0303F580634FEA41504FEAC0
:10249000035202EBD12170474FF0000070470EF15C
:1024A000020E2EF0030E5EF8046B364205D4012AAC
:1024B00043EB030515F5001F12D8012841EB010C71
:1024C0001CF5001F0CD80ED14FEAD17C15F5001F6A
:1024D0000CEB4C0C0CF1020C08BF4CEBD37C04E071
:1024E0004FF0080C01E04FEAD37C0CEB4C0526FAC8
:1024F00005F606F00706B6F1040C06D20EEB860CC4
:10250000BDE870404CF0010C6047DFE80CF0090BAF
:1025100002024FF000414FF00000A1F5002170BD14
:1025200019461046012851EB010418BFD4F50014D8
:1025300084BF002001F0004170BD0808A0F5001123
:102540004FEA31017047000043004FEAD30C4FEAD5
:102550003C0C43401FBF40070CF1605113F0FE4F8D
:1025600070471CF0006F03D100200CF00041704751
:102570000CF0004343EA507010B540EACC0000F084
:102580004FF800BF000000924FEA0001FFF7D5BFEF
:102590004FF000414FF00000A1F5002170474010BE
:1025A00058BFC0F14040491058BFC1F1404181427D
:1025B000EFF300807047000050EA010C00F1138037
:1025C0001CF5000F58BFBCF5000F01D488427047BE
:1025D00007D710F5000F58BF11F5000F15D488422A
:1025E0007047894270471CF5000F04D5BCF5000FF9
:1025F000F7D5814270474FF0807C1CEB400F38BF0D
:102600001CEB410F01D28142704710B500F008F871
:10261000922449004FF000504FF08051FFF7BFBFA8
:102620000EF1020E2EF0030E5EF8044B244204D489
:102630004FEA4102B2F17F4F11D84FEA4003B3F1A4
:102640007F4F0CD80ED14FEAD07CB2F17F4F0CEB0C
:102650004C0C0CF1020C08BF4CEBD17C04E04FF0A9
:10266000080C01E04FEAD17C0CEB4C0324FA03F494
:1026700004F00704B4F1040C06D20EEB840CBDE8A0
:1026800010404CF0010C6047DFE80CF00708020234
:102690004FF00040A0F5800010BD0846420018BF72
:1026A000D2F1807288BF00F0004010BDFF2141EAE6
:1026B000D050C0057047FDF753BF00000240000036
:1026C000000000A00000000005400000000000C85D
:1026D000000000000C4000000000409C00000000D2
:1026E000194000000020BCBE000000003440000083
:1026F000BFC91B8E00000004B5400000504BCFD076
:102700006607E2CF010000006C4100003E8251AA42
:10271000DFEEA73401000000D9420000DCB5A0E2E2
:102720003A301F97FFFFFFFFB4450000FD25A0C80A
:10273000E9A3C14FFFFFFFFFFF3F00000000008043
:1027400000000000FF3F00000000008000000000CB
:102750008C27000800000020840000006C010008A5
:1027600010280008840000203407000088010008B9
:102770001C00000043000000F8FFFFFF0C000000F9
:102780000E0000000F0000002E00000000000000FE
:102790000000000084000020200000000000000075
:1027A000A40000202000000000000000C400002061
:1027B0002000000000000000E400002020000000D5
:1027C00000000000040100202000000000000000C4
:1027D0002401002020000000000000000000000094
:1027E00000000000010203040102030406070809B7
:1027F00002040608000000000000000000A24A04D5
:1028000000000000000000000102030406070809A0
:0400000508000131BD
:00000001FF
